{
  "contractName": "InvestigatorAppointment",
  "abi": [
    {
      "inputs": [
        {
          "internalType": "address",
          "name": "userContract",
          "type": "address"
        }
      ],
      "stateMutability": "nonpayable",
      "type": "constructor"
    },
    {
      "anonymous": false,
      "inputs": [
        {
          "indexed": true,
          "internalType": "address",
          "name": "reporter",
          "type": "address"
        },
        {
          "indexed": true,
          "internalType": "address",
          "name": "investigator",
          "type": "address"
        },
        {
          "indexed": true,
          "internalType": "uint256",
          "name": "caseId",
          "type": "uint256"
        },
        {
          "indexed": false,
          "internalType": "uint256",
          "name": "timeSlot",
          "type": "uint256"
        }
      ],
      "name": "AppointmentBooked",
      "type": "event"
    },
    {
      "anonymous": false,
      "inputs": [
        {
          "indexed": true,
          "internalType": "address",
          "name": "investigator",
          "type": "address"
        },
        {
          "indexed": false,
          "internalType": "uint256",
          "name": "timeSlot",
          "type": "uint256"
        }
      ],
      "name": "SlotAlreadyBooked",
      "type": "event"
    },
    {
      "anonymous": false,
      "inputs": [
        {
          "indexed": true,
          "internalType": "address",
          "name": "caller",
          "type": "address"
        },
        {
          "indexed": false,
          "internalType": "string",
          "name": "roleAttempted",
          "type": "string"
        }
      ],
      "name": "UnauthorizedAccess",
      "type": "event"
    },
    {
      "inputs": [
        {
          "internalType": "address",
          "name": "",
          "type": "address"
        },
        {
          "internalType": "uint256",
          "name": "",
          "type": "uint256"
        }
      ],
      "name": "investigatorAppointments",
      "outputs": [
        {
          "internalType": "uint256",
          "name": "caseId",
          "type": "uint256"
        },
        {
          "internalType": "address",
          "name": "investigator",
          "type": "address"
        },
        {
          "internalType": "uint256",
          "name": "timeSlot",
          "type": "uint256"
        },
        {
          "internalType": "address",
          "name": "reporter",
          "type": "address"
        }
      ],
      "stateMutability": "view",
      "type": "function",
      "constant": true
    },
    {
      "inputs": [
        {
          "internalType": "address",
          "name": "",
          "type": "address"
        },
        {
          "internalType": "uint256",
          "name": "",
          "type": "uint256"
        }
      ],
      "name": "slotBooked",
      "outputs": [
        {
          "internalType": "bool",
          "name": "",
          "type": "bool"
        }
      ],
      "stateMutability": "view",
      "type": "function",
      "constant": true
    },
    {
      "inputs": [
        {
          "internalType": "uint256",
          "name": "caseId",
          "type": "uint256"
        },
        {
          "internalType": "address",
          "name": "investigator",
          "type": "address"
        },
        {
          "internalType": "uint256",
          "name": "timeSlot",
          "type": "uint256"
        }
      ],
      "name": "bookAppointment",
      "outputs": [],
      "stateMutability": "payable",
      "type": "function",
      "payable": true
    },
    {
      "inputs": [],
      "name": "getSchedule",
      "outputs": [
        {
          "components": [
            {
              "internalType": "uint256",
              "name": "caseId",
              "type": "uint256"
            },
            {
              "internalType": "address",
              "name": "investigator",
              "type": "address"
            },
            {
              "internalType": "uint256",
              "name": "timeSlot",
              "type": "uint256"
            },
            {
              "internalType": "address",
              "name": "reporter",
              "type": "address"
            }
          ],
          "internalType": "struct InvestigatorAppointment.Appointment[]",
          "name": "",
          "type": "tuple[]"
        }
      ],
      "stateMutability": "nonpayable",
      "type": "function"
    }
  ],
  "bytecode": "0x60806040523480156200001157600080fd5b5060405162001244380380620012448339818101604052810190620000379190620000e8565b806000806101000a81548173ffffffffffffffffffffffffffffffffffffffff021916908373ffffffffffffffffffffffffffffffffffffffff160217905550506200011a565b600080fd5b600073ffffffffffffffffffffffffffffffffffffffff82169050919050565b6000620000b08262000083565b9050919050565b620000c281620000a3565b8114620000ce57600080fd5b50565b600081519050620000e281620000b7565b92915050565b6000602082840312156200010157620001006200007e565b5b60006200011184828501620000d1565b91505092915050565b61111a806200012a6000396000f3fe60806040526004361061003f5760003560e01c80632605982d1461004457806326fadbe214610081578063d13b07bb146100ac578063e52844e9146100c8575b600080fd5b34801561005057600080fd5b5061006b60048036038101906100669190610a21565b610108565b6040516100789190610a7c565b60405180910390f35b34801561008d57600080fd5b50610096610137565b6040516100a39190610bb9565b60405180910390f35b6100c660048036038101906100c19190610bdb565b61040b565b005b3480156100d457600080fd5b506100ef60048036038101906100ea9190610a21565b6108ec565b6040516100ff9493929190610c4c565b60405180910390f35b60026020528160005260406000206020528060005260406000206000915091509054906101000a900460ff1681565b606060008060009054906101000a900473ffffffffffffffffffffffffffffffffffffffff1673ffffffffffffffffffffffffffffffffffffffff1663e3b44855336040518263ffffffff1660e01b81526004016101959190610c91565b600060405180830381865afa1580156101b2573d6000803e3d6000fd5b505050506040513d6000823e3d601f19601f820116820180604052508101906101db9190610e0d565b90506040518060400160405280600c81526020017f496e76657374696761746f720000000000000000000000000000000000000000815250805190602001208180519060200120146102b0573373ffffffffffffffffffffffffffffffffffffffff167f37b13c29a1a7be892be1b16465e66b164f27cf7b71cbc900441215aaf08c23758260405161026d9190610eab565b60405180910390a26040517f08c379a00000000000000000000000000000000000000000000000000000000081526004016102a790610f3f565b60405180910390fd5b600160003373ffffffffffffffffffffffffffffffffffffffff1673ffffffffffffffffffffffffffffffffffffffff168152602001908152602001600020805480602002602001604051908101604052809291908181526020016000905b828210156104015783829060005260206000209060040201604051806080016040529081600082015481526020016001820160009054906101000a900473ffffffffffffffffffffffffffffffffffffffff1673ffffffffffffffffffffffffffffffffffffffff1673ffffffffffffffffffffffffffffffffffffffff168152602001600282015481526020016003820160009054906101000a900473ffffffffffffffffffffffffffffffffffffffff1673ffffffffffffffffffffffffffffffffffffffff1673ffffffffffffffffffffffffffffffffffffffff16815250508152602001906001019061030f565b5050505091505090565b60008060009054906101000a900473ffffffffffffffffffffffffffffffffffffffff1673ffffffffffffffffffffffffffffffffffffffff1663e3b44855336040518263ffffffff1660e01b81526004016104679190610c91565b600060405180830381865afa158015610484573d6000803e3d6000fd5b505050506040513d6000823e3d601f19601f820116820180604052508101906104ad9190610e0d565b90506040518060400160405280600881526020017f5265706f7274657200000000000000000000000000000000000000000000000081525080519060200120818051906020012014610582573373ffffffffffffffffffffffffffffffffffffffff167f37b13c29a1a7be892be1b16465e66b164f27cf7b71cbc900441215aaf08c23758260405161053f9190610eab565b60405180910390a26040517f08c379a000000000000000000000000000000000000000000000000000000000815260040161057990610fd1565b60405180910390fd5b662386f26fc100003410156105cc576040517f08c379a00000000000000000000000000000000000000000000000000000000081526004016105c39061103d565b60405180910390fd5b600260008473ffffffffffffffffffffffffffffffffffffffff1673ffffffffffffffffffffffffffffffffffffffff168152602001908152602001600020600083815260200190815260200160002060009054906101000a900460ff16156106b8578273ffffffffffffffffffffffffffffffffffffffff167fb92de4315e99e605e906ce77e1cdfc686bdc2922302a9c23ccdbc0a709f0a7c983604051610675919061105d565b60405180910390a26040517f08c379a00000000000000000000000000000000000000000000000000000000081526004016106af906110c4565b60405180910390fd5b6001600260008573ffffffffffffffffffffffffffffffffffffffff1673ffffffffffffffffffffffffffffffffffffffff168152602001908152602001600020600084815260200190815260200160002060006101000a81548160ff021916908315150217905550600060405180608001604052808681526020018573ffffffffffffffffffffffffffffffffffffffff1681526020018481526020013373ffffffffffffffffffffffffffffffffffffffff168152509050600160008573ffffffffffffffffffffffffffffffffffffffff1673ffffffffffffffffffffffffffffffffffffffff1681526020019081526020016000208190806001815401808255809150506001900390600052602060002090600402016000909190919091506000820151816000015560208201518160010160006101000a81548173ffffffffffffffffffffffffffffffffffffffff021916908373ffffffffffffffffffffffffffffffffffffffff1602179055506040820151816002015560608201518160030160006101000a81548173ffffffffffffffffffffffffffffffffffffffff021916908373ffffffffffffffffffffffffffffffffffffffff1602179055505050848473ffffffffffffffffffffffffffffffffffffffff163373ffffffffffffffffffffffffffffffffffffffff167f30e93a40e22ddf3aafd04e83ab033dfeb3eaf9062b45d11b2e736e2759803ab1866040516108dd919061105d565b60405180910390a45050505050565b6001602052816000526040600020818154811061090857600080fd5b9060005260206000209060040201600091509150508060000154908060010160009054906101000a900473ffffffffffffffffffffffffffffffffffffffff16908060020154908060030160009054906101000a900473ffffffffffffffffffffffffffffffffffffffff16905084565b6000604051905090565b600080fd5b600080fd5b600073ffffffffffffffffffffffffffffffffffffffff82169050919050565b60006109b88261098d565b9050919050565b6109c8816109ad565b81146109d357600080fd5b50565b6000813590506109e5816109bf565b92915050565b6000819050919050565b6109fe816109eb565b8114610a0957600080fd5b50565b600081359050610a1b816109f5565b92915050565b60008060408385031215610a3857610a37610983565b5b6000610a46858286016109d6565b9250506020610a5785828601610a0c565b9150509250929050565b60008115159050919050565b610a7681610a61565b82525050565b6000602082019050610a916000830184610a6d565b92915050565b600081519050919050565b600082825260208201905092915050565b6000819050602082019050919050565b610acc816109eb565b82525050565b610adb816109ad565b82525050565b608082016000820151610af76000850182610ac3565b506020820151610b0a6020850182610ad2565b506040820151610b1d6040850182610ac3565b506060820151610b306060850182610ad2565b50505050565b6000610b428383610ae1565b60808301905092915050565b6000602082019050919050565b6000610b6682610a97565b610b708185610aa2565b9350610b7b83610ab3565b8060005b83811015610bac578151610b938882610b36565b9750610b9e83610b4e565b925050600181019050610b7f565b5085935050505092915050565b60006020820190508181036000830152610bd38184610b5b565b905092915050565b600080600060608486031215610bf457610bf3610983565b5b6000610c0286828701610a0c565b9350506020610c13868287016109d6565b9250506040610c2486828701610a0c565b9150509250925092565b610c37816109eb565b82525050565b610c46816109ad565b82525050565b6000608082019050610c616000830187610c2e565b610c6e6020830186610c3d565b610c7b6040830185610c2e565b610c886060830184610c3d565b95945050505050565b6000602082019050610ca66000830184610c3d565b92915050565b600080fd5b600080fd5b6000601f19601f8301169050919050565b7f4e487b7100000000000000000000000000000000000000000000000000000000600052604160045260246000fd5b610cff82610cb6565b810181811067ffffffffffffffff82111715610d1e57610d1d610cc7565b5b80604052505050565b6000610d31610979565b9050610d3d8282610cf6565b919050565b600067ffffffffffffffff821115610d5d57610d5c610cc7565b5b610d6682610cb6565b9050602081019050919050565b60005b83811015610d91578082015181840152602081019050610d76565b60008484015250505050565b6000610db0610dab84610d42565b610d27565b905082815260208101848484011115610dcc57610dcb610cb1565b5b610dd7848285610d73565b509392505050565b600082601f830112610df457610df3610cac565b5b8151610e04848260208601610d9d565b91505092915050565b600060208284031215610e2357610e22610983565b5b600082015167ffffffffffffffff811115610e4157610e40610988565b5b610e4d84828501610ddf565b91505092915050565b600081519050919050565b600082825260208201905092915050565b6000610e7d82610e56565b610e878185610e61565b9350610e97818560208601610d73565b610ea081610cb6565b840191505092915050565b60006020820190508181036000830152610ec58184610e72565b905092915050565b7f4163636573732064656e6965643a204f6e6c7920696e76657374696761746f7260008201527f732063616e2076696577207363686564756c6500000000000000000000000000602082015250565b6000610f29603383610e61565b9150610f3482610ecd565b604082019050919050565b60006020820190508181036000830152610f5881610f1c565b9050919050565b7f4163636573732064656e6965643a204f6e6c79207265706f727465727320636160008201527f6e20626f6f6b206170706f696e746d656e747300000000000000000000000000602082015250565b6000610fbb603383610e61565b9150610fc682610f5f565b604082019050919050565b60006020820190508181036000830152610fea81610fae565b9050919050565b7f496e73756666696369656e742066656500000000000000000000000000000000600082015250565b6000611027601083610e61565b915061103282610ff1565b602082019050919050565b600060208201905081810360008301526110568161101a565b9050919050565b60006020820190506110726000830184610c2e565b92915050565b7f54696d6520736c6f7420616c726561647920626f6f6b65640000000000000000600082015250565b60006110ae601883610e61565b91506110b982611078565b602082019050919050565b600060208201905081810360008301526110dd816110a1565b905091905056fea26469706673582212204f1e1bcc0ed4ad70b893fa8fcaeb3a73649b43d8aaaef955c40a3b7044fd27bb64736f6c63430008130033",
  "immutableReferences": {},
  "source": "// SPDX-License-Identifier: MIT\npragma solidity ^0.8.19;\n\nimport \"./UserRegistration.sol\";\n\ncontract InvestigatorAppointment {\n    struct Appointment {\n        uint caseId;\n        address investigator;\n        uint timeSlot;\n        address reporter;\n    }\n\n    event AppointmentBooked(address indexed reporter, address indexed investigator, uint indexed caseId, uint timeSlot);\n    event SlotAlreadyBooked(address indexed investigator, uint timeSlot);\n    event UnauthorizedAccess(address indexed caller, string roleAttempted);\n\n    UserRegistration userRegistration;\n    mapping(address => Appointment[]) public investigatorAppointments;\n    mapping(address => mapping(uint => bool)) public slotBooked;\n\n    constructor(address userContract) {\n        userRegistration = UserRegistration(userContract);\n    }\n\n    modifier onlyReporter() {\n        string memory role = userRegistration.checkUserData(msg.sender);\n        if (keccak256(bytes(role)) != keccak256(bytes(\"Reporter\"))) {\n            emit UnauthorizedAccess(msg.sender, role);\n            revert(\"Access denied: Only reporters can book appointments\");\n        }\n        _;\n    }\n\n    modifier onlyInvestigator() {\n        string memory role = userRegistration.checkUserData(msg.sender);\n        if (keccak256(bytes(role)) != keccak256(bytes(\"Investigator\"))) {\n            emit UnauthorizedAccess(msg.sender, role);\n            revert(\"Access denied: Only investigators can view schedule\");\n        }\n        _;\n    }\n\n    function bookAppointment(\n        uint caseId,\n        address investigator,\n        uint timeSlot\n    ) public payable onlyReporter {\n        require(msg.value >= 0.01 ether, \"Insufficient fee\");\n\n        if (slotBooked[investigator][timeSlot]) {\n            emit SlotAlreadyBooked(investigator, timeSlot);\n            revert(\"Time slot already booked\");\n        }\n\n        slotBooked[investigator][timeSlot] = true;\n\n        Appointment memory newAppointment = Appointment({\n            caseId: caseId,\n            investigator: investigator,\n            timeSlot: timeSlot,\n            reporter: msg.sender\n        });\n\n        investigatorAppointments[investigator].push(newAppointment);\n        emit AppointmentBooked(msg.sender, investigator, caseId, timeSlot);\n    }\n\n   function getSchedule() public onlyInvestigator returns (Appointment[] memory) {\n        return investigatorAppointments[msg.sender];\n    }\n\n}\n",
  "sourcePath": "/Users/ovijit/Local/dapp/mainproject/contracts/InvestigatorAppointment.sol",
  "compiler": {
    "name": "solc",
    "version": "0.8.19+commit.7dd6d404.Emscripten.clang"
  },
  "schemaVersion": "3.4.16",
  "updatedAt": "2025-05-01T18:25:03.385Z",
  "networkType": "ethereum",
  "devdoc": {
    "kind": "dev",
    "methods": {},
    "version": 1
  },
  "userdoc": {
    "kind": "user",
    "methods": {},
    "version": 1
  }
}