{
  "contractName": "InvestigatorContract",
  "abi": [
    {
      "inputs": [
        {
          "internalType": "address",
          "name": "userRegistrationAddress",
          "type": "address"
        },
        {
          "internalType": "address",
          "name": "reportAddress",
          "type": "address"
        }
      ],
      "stateMutability": "nonpayable",
      "type": "constructor"
    },
    {
      "anonymous": false,
      "inputs": [
        {
          "indexed": true,
          "internalType": "uint256",
          "name": "caseId",
          "type": "uint256"
        },
        {
          "indexed": false,
          "internalType": "address",
          "name": "investigator",
          "type": "address"
        }
      ],
      "name": "InvestigatorAlreadyAssigned",
      "type": "event"
    },
    {
      "anonymous": false,
      "inputs": [
        {
          "indexed": true,
          "internalType": "address",
          "name": "assignedBy",
          "type": "address"
        },
        {
          "indexed": true,
          "internalType": "uint256",
          "name": "caseId",
          "type": "uint256"
        },
        {
          "indexed": true,
          "internalType": "address",
          "name": "investigator",
          "type": "address"
        }
      ],
      "name": "InvestigatorAssigned",
      "type": "event"
    },
    {
      "anonymous": false,
      "inputs": [
        {
          "indexed": true,
          "internalType": "address",
          "name": "caller",
          "type": "address"
        },
        {
          "indexed": false,
          "internalType": "string",
          "name": "roleAttempted",
          "type": "string"
        }
      ],
      "name": "UnauthorizedAccess",
      "type": "event"
    },
    {
      "inputs": [
        {
          "internalType": "uint256",
          "name": "caseId",
          "type": "uint256"
        },
        {
          "internalType": "address",
          "name": "investigator",
          "type": "address"
        }
      ],
      "name": "assignInvestigator",
      "outputs": [
        {
          "internalType": "string",
          "name": "",
          "type": "string"
        }
      ],
      "stateMutability": "nonpayable",
      "type": "function"
    },
    {
      "inputs": [
        {
          "internalType": "uint256",
          "name": "caseId",
          "type": "uint256"
        }
      ],
      "name": "getInvestigators",
      "outputs": [
        {
          "internalType": "address[]",
          "name": "",
          "type": "address[]"
        }
      ],
      "stateMutability": "view",
      "type": "function",
      "constant": true
    }
  ],
  "bytecode": "0x608060405234801561001057600080fd5b50604051610c34380380610c348339818101604052810190610032919061011d565b816000806101000a81548173ffffffffffffffffffffffffffffffffffffffff021916908373ffffffffffffffffffffffffffffffffffffffff16021790555080600160006101000a81548173ffffffffffffffffffffffffffffffffffffffff021916908373ffffffffffffffffffffffffffffffffffffffff160217905550505061015d565b600080fd5b600073ffffffffffffffffffffffffffffffffffffffff82169050919050565b60006100ea826100bf565b9050919050565b6100fa816100df565b811461010557600080fd5b50565b600081519050610117816100f1565b92915050565b60008060408385031215610134576101336100ba565b5b600061014285828601610108565b925050602061015385828601610108565b9150509250929050565b610ac88061016c6000396000f3fe608060405234801561001057600080fd5b50600436106100365760003560e01c8063582f224a1461003b578063dc32a81e1461006b575b600080fd5b610055600480360381019061005091906104fc565b61009b565b6040516100629190610619565b60405180910390f35b61008560048036038101906100809190610667565b61013c565b6040516100929190610737565b60405180910390f35b60606002600083815260200190815260200160002080548060200260200160405190810160405280929190818152602001828054801561013057602002820191906000526020600020905b8160009054906101000a900473ffffffffffffffffffffffffffffffffffffffff1673ffffffffffffffffffffffffffffffffffffffff16815260200190600101908083116100e6575b50505050509050919050565b606060008060009054906101000a900473ffffffffffffffffffffffffffffffffffffffff1673ffffffffffffffffffffffffffffffffffffffff1663e3b44855336040518263ffffffff1660e01b815260040161019a9190610768565b600060405180830381865afa1580156101b7573d6000803e3d6000fd5b505050506040513d6000823e3d601f19601f820116820180604052508101906101e091906108a9565b90506040518060400160405280600581526020017f41646d696e000000000000000000000000000000000000000000000000000000815250805190602001208180519060200120146102b5573373ffffffffffffffffffffffffffffffffffffffff167f37b13c29a1a7be892be1b16465e66b164f27cf7b71cbc900441215aaf08c2375826040516102729190610737565b60405180910390a26040517f08c379a00000000000000000000000000000000000000000000000000000000081526004016102ac9061093e565b60405180910390fd5b600060026000868152602001908152602001600020905060005b81805490508110156103d1578473ffffffffffffffffffffffffffffffffffffffff168282815481106103055761030461095e565b5b9060005260206000200160009054906101000a900473ffffffffffffffffffffffffffffffffffffffff1673ffffffffffffffffffffffffffffffffffffffff16036103be57857f15079ae335e00502336afe0aeac5dedbb85dc269f1523dd50c2d7edc655c53d48660405161037b9190610768565b60405180910390a26040517f08c379a00000000000000000000000000000000000000000000000000000000081526004016103b5906109d9565b60405180910390fd5b80806103c990610a28565b9150506102cf565b5080849080600181540180825580915050600190039060005260206000200160009091909190916101000a81548173ffffffffffffffffffffffffffffffffffffffff021916908373ffffffffffffffffffffffffffffffffffffffff1602179055508373ffffffffffffffffffffffffffffffffffffffff16853373ffffffffffffffffffffffffffffffffffffffff167f05b34d625cfa5d40b813cb079a6b4a36a4c7ac7a11d76f50dc7955a7d674c5d460405160405180910390a4604051806060016040528060228152602001610a71602291399250505092915050565b6000604051905090565b600080fd5b600080fd5b6000819050919050565b6104d9816104c6565b81146104e457600080fd5b50565b6000813590506104f6816104d0565b92915050565b600060208284031215610512576105116104bc565b5b6000610520848285016104e7565b91505092915050565b600081519050919050565b600082825260208201905092915050565b6000819050602082019050919050565b600073ffffffffffffffffffffffffffffffffffffffff82169050919050565b600061058082610555565b9050919050565b61059081610575565b82525050565b60006105a28383610587565b60208301905092915050565b6000602082019050919050565b60006105c682610529565b6105d08185610534565b93506105db83610545565b8060005b8381101561060c5781516105f38882610596565b97506105fe836105ae565b9250506001810190506105df565b5085935050505092915050565b6000602082019050818103600083015261063381846105bb565b905092915050565b61064481610575565b811461064f57600080fd5b50565b6000813590506106618161063b565b92915050565b6000806040838503121561067e5761067d6104bc565b5b600061068c858286016104e7565b925050602061069d85828601610652565b9150509250929050565b600081519050919050565b600082825260208201905092915050565b60005b838110156106e15780820151818401526020810190506106c6565b60008484015250505050565b6000601f19601f8301169050919050565b6000610709826106a7565b61071381856106b2565b93506107238185602086016106c3565b61072c816106ed565b840191505092915050565b6000602082019050818103600083015261075181846106fe565b905092915050565b61076281610575565b82525050565b600060208201905061077d6000830184610759565b92915050565b600080fd5b600080fd5b7f4e487b7100000000000000000000000000000000000000000000000000000000600052604160045260246000fd5b6107c5826106ed565b810181811067ffffffffffffffff821117156107e4576107e361078d565b5b80604052505050565b60006107f76104b2565b905061080382826107bc565b919050565b600067ffffffffffffffff8211156108235761082261078d565b5b61082c826106ed565b9050602081019050919050565b600061084c61084784610808565b6107ed565b90508281526020810184848401111561086857610867610788565b5b6108738482856106c3565b509392505050565b600082601f8301126108905761088f610783565b5b81516108a0848260208601610839565b91505092915050565b6000602082840312156108bf576108be6104bc565b5b600082015167ffffffffffffffff8111156108dd576108dc6104c1565b5b6108e98482850161087b565b91505092915050565b7f4163636573732064656e6965643a2041646d696e206f6e6c7900000000000000600082015250565b60006109286019836106b2565b9150610933826108f2565b602082019050919050565b600060208201905081810360008301526109578161091b565b9050919050565b7f4e487b7100000000000000000000000000000000000000000000000000000000600052603260045260246000fd5b7f496e76657374696761746f7220616c72656164792061737369676e6564000000600082015250565b60006109c3601d836106b2565b91506109ce8261098d565b602082019050919050565b600060208201905081810360008301526109f2816109b6565b9050919050565b7f4e487b7100000000000000000000000000000000000000000000000000000000600052601160045260246000fd5b6000610a33826104c6565b91507fffffffffffffffffffffffffffffffffffffffffffffffffffffffffffffffff8203610a6557610a646109f9565b5b60018201905091905056fe496e76657374696761746f722061737369676e6564207375636365737366756c6c79a26469706673582212203aede48f7700df8159716e581a7add810be91949e6faf145133713cc8e788a2064736f6c63430008130033",
  "immutableReferences": {},
  "source": "// SPDX-License-Identifier: MIT\npragma solidity ^0.8.19;\n\nimport \"./UserRegistration.sol\";\nimport \"./Report.sol\";\n\ncontract InvestigatorContract {\n    UserRegistration userRegistration;\n    Report report;\n\n  \n    event InvestigatorAssigned(address indexed assignedBy, uint indexed caseId, address indexed investigator);\n    event InvestigatorAlreadyAssigned(uint indexed caseId, address investigator);\n    event UnauthorizedAccess(address indexed caller, string roleAttempted);\n\n   \n    constructor(address userRegistrationAddress, address reportAddress) {\n        userRegistration = UserRegistration(userRegistrationAddress);\n        report = Report(reportAddress);\n    }\n\n    \n    mapping(uint => address[]) private caseInvestigators;\n\n   \n    modifier onlyAdmin() {\n        string memory role = userRegistration.checkUserData(msg.sender);\n        if (keccak256(bytes(role)) != keccak256(bytes(\"Admin\"))) {\n            emit UnauthorizedAccess(msg.sender, role);\n            revert(\"Access denied: Admin only\");\n        }\n        _;\n    }\n\n    \n    function assignInvestigator(uint caseId, address investigator) external onlyAdmin returns (string memory) {\n        address[] storage assignedInvestigators = caseInvestigators[caseId];\n\n        \n        for (uint i = 0; i < assignedInvestigators.length; i++) {\n            if (assignedInvestigators[i] == investigator) {\n                emit InvestigatorAlreadyAssigned(caseId, investigator);\n                revert(\"Investigator already assigned\");\n            }\n        }\n\n       \n        assignedInvestigators.push(investigator);\n        emit InvestigatorAssigned(msg.sender, caseId, investigator);\n        return \"Investigator assigned successfully\";\n    }\n\n  \n    function getInvestigators(uint caseId) external view returns (address[] memory) {\n        return caseInvestigators[caseId];\n    }\n}\n",
  "sourcePath": "/Users/ovijit/Local/dapp/mainproject/contracts/InvestigatorContract.sol",
  "compiler": {
    "name": "solc",
    "version": "0.8.19+commit.7dd6d404.Emscripten.clang"
  },
  "schemaVersion": "3.4.16",
  "updatedAt": "2025-05-01T18:25:03.381Z",
  "networkType": "ethereum",
  "devdoc": {
    "kind": "dev",
    "methods": {},
    "version": 1
  },
  "userdoc": {
    "kind": "user",
    "methods": {},
    "version": 1
  }
}