{
  "contractName": "MainSystem",
  "abi": [
    {
      "inputs": [
        {
          "internalType": "address",
          "name": "userRegistryAddr",
          "type": "address"
        },
        {
          "internalType": "address",
          "name": "reportAddr",
          "type": "address"
        },
        {
          "internalType": "address",
          "name": "investigatorAddr",
          "type": "address"
        },
        {
          "internalType": "address",
          "name": "appointmentAddr",
          "type": "address"
        }
      ],
      "stateMutability": "nonpayable",
      "type": "constructor"
    },
    {
      "anonymous": false,
      "inputs": [
        {
          "indexed": true,
          "internalType": "address",
          "name": "admin",
          "type": "address"
        }
      ],
      "name": "AdminAccessChecked",
      "type": "event"
    },
    {
      "anonymous": false,
      "inputs": [
        {
          "indexed": true,
          "internalType": "address",
          "name": "reporter",
          "type": "address"
        },
        {
          "indexed": true,
          "internalType": "address",
          "name": "investigator",
          "type": "address"
        },
        {
          "indexed": true,
          "internalType": "uint256",
          "name": "caseId",
          "type": "uint256"
        },
        {
          "indexed": false,
          "internalType": "uint256",
          "name": "timeSlot",
          "type": "uint256"
        }
      ],
      "name": "AppointmentBooked",
      "type": "event"
    },
    {
      "anonymous": false,
      "inputs": [
        {
          "indexed": true,
          "internalType": "uint256",
          "name": "caseId",
          "type": "uint256"
        },
        {
          "indexed": true,
          "internalType": "address",
          "name": "investigator",
          "type": "address"
        }
      ],
      "name": "CaseAssigned",
      "type": "event"
    },
    {
      "anonymous": false,
      "inputs": [
        {
          "indexed": true,
          "internalType": "address",
          "name": "caller",
          "type": "address"
        },
        {
          "indexed": false,
          "internalType": "string",
          "name": "roleAttempted",
          "type": "string"
        }
      ],
      "name": "UnauthorizedAccess",
      "type": "event"
    },
    {
      "inputs": [
        {
          "internalType": "uint256",
          "name": "caseId",
          "type": "uint256"
        },
        {
          "internalType": "address",
          "name": "invAddress",
          "type": "address"
        }
      ],
      "name": "assignCaseToInvestigator",
      "outputs": [],
      "stateMutability": "nonpayable",
      "type": "function"
    },
    {
      "inputs": [
        {
          "internalType": "uint256",
          "name": "divisionId",
          "type": "uint256"
        }
      ],
      "name": "getMissingByDivision",
      "outputs": [
        {
          "internalType": "string",
          "name": "",
          "type": "string"
        }
      ],
      "stateMutability": "view",
      "type": "function"
    },
    {
      "inputs": [
        {
          "internalType": "uint256",
          "name": "caseId",
          "type": "uint256"
        }
      ],
      "name": "getInvestigatorsForCase",
      "outputs": [
        {
          "internalType": "address[]",
          "name": "",
          "type": "address[]"
        }
      ],
      "stateMutability": "view",
      "type": "function"
    },
    {
      "inputs": [
        {
          "internalType": "uint256",
          "name": "caseId",
          "type": "uint256"
        },
        {
          "internalType": "address",
          "name": "inv",
          "type": "address"
        },
        {
          "internalType": "uint256",
          "name": "timeSlot",
          "type": "uint256"
        }
      ],
      "name": "bookInvestigationSlot",
      "outputs": [],
      "stateMutability": "payable",
      "type": "function"
    },
    {
      "inputs": [],
      "name": "getMySchedule",
      "outputs": [
        {
          "components": [
            {
              "internalType": "uint256",
              "name": "caseId",
              "type": "uint256"
            },
            {
              "internalType": "address",
              "name": "investigator",
              "type": "address"
            },
            {
              "internalType": "uint256",
              "name": "timeSlot",
              "type": "uint256"
            },
            {
              "internalType": "address",
              "name": "reporter",
              "type": "address"
            }
          ],
          "internalType": "struct InvestigatorAppointment.Appointment[]",
          "name": "",
          "type": "tuple[]"
        }
      ],
      "stateMutability": "nonpayable",
      "type": "function"
    }
  ],
  "bytecode": "0x60806040523480156200001157600080fd5b50604051620016ac380380620016ac83398181016040528101906200003791906200026b565b836000806101000a81548173ffffffffffffffffffffffffffffffffffffffff021916908373ffffffffffffffffffffffffffffffffffffffff16021790555081600160006101000a81548173ffffffffffffffffffffffffffffffffffffffff021916908373ffffffffffffffffffffffffffffffffffffffff16021790555080600260006101000a81548173ffffffffffffffffffffffffffffffffffffffff021916908373ffffffffffffffffffffffffffffffffffffffff16021790555082600360006101000a81548173ffffffffffffffffffffffffffffffffffffffff021916908373ffffffffffffffffffffffffffffffffffffffff16021790555060008054906101000a900473ffffffffffffffffffffffffffffffffffffffff1673ffffffffffffffffffffffffffffffffffffffff166308ea7d21600063499602d66040518363ffffffff1660e01b81526004016200019c929190620003d8565b6000604051808303816000875af1158015620001bc573d6000803e3d6000fd5b505050506040513d6000823e3d601f19601f82011682018060405250810190620001e7919062000599565b5050505050620005ea565b6000604051905090565b600080fd5b600080fd5b600073ffffffffffffffffffffffffffffffffffffffff82169050919050565b6000620002338262000206565b9050919050565b620002458162000226565b81146200025157600080fd5b50565b60008151905062000265816200023a565b92915050565b60008060008060808587031215620002885762000287620001fc565b5b6000620002988782880162000254565b9450506020620002ab8782880162000254565b9350506040620002be8782880162000254565b9250506060620002d18782880162000254565b91505092959194509250565b600082825260208201905092915050565b7f41646d696e000000000000000000000000000000000000000000000000000000600082015250565b600062000326600583620002dd565b91506200033382620002ee565b602082019050919050565b6000819050919050565b6000819050919050565b6000819050919050565b60006200037d6200037762000371846200033e565b62000352565b62000348565b9050919050565b6200038f816200035c565b82525050565b6000819050919050565b6000620003c0620003ba620003b48462000395565b62000352565b62000348565b9050919050565b620003d2816200039f565b82525050565b60006060820190508181036000830152620003f38162000317565b905062000404602083018562000384565b620004136040830184620003c7565b9392505050565b600080fd5b600080fd5b6000601f19601f8301169050919050565b7f4e487b7100000000000000000000000000000000000000000000000000000000600052604160045260246000fd5b6200046f8262000424565b810181811067ffffffffffffffff8211171562000491576200049062000435565b5b80604052505050565b6000620004a6620001f2565b9050620004b4828262000464565b919050565b600067ffffffffffffffff821115620004d757620004d662000435565b5b620004e28262000424565b9050602081019050919050565b60005b838110156200050f578082015181840152602081019050620004f2565b60008484015250505050565b6000620005326200052c84620004b9565b6200049a565b9050828152602081018484840111156200055157620005506200041f565b5b6200055e848285620004ef565b509392505050565b600082601f8301126200057e576200057d6200041a565b5b8151620005908482602086016200051b565b91505092915050565b600060208284031215620005b257620005b1620001fc565b5b600082015167ffffffffffffffff811115620005d357620005d262000201565b5b620005e18482850162000566565b91505092915050565b6110b280620005fa6000396000f3fe60806040526004361061004a5760003560e01c80633db70cc21461004f578063d9dd517b14610078578063e90936aa146100b5578063ed005ae9146100e0578063f00c2fc21461011d575b600080fd5b34801561005b57600080fd5b506100766004803603810190610071919061077c565b610139565b005b34801561008457600080fd5b5061009f600480360381019061009a91906107bc565b6103e2565b6040516100ac9190610879565b60405180910390f35b3480156100c157600080fd5b506100ca61048e565b6040516100d791906109bd565b60405180910390f35b3480156100ec57600080fd5b50610107600480360381019061010291906107bc565b61052d565b6040516101149190610a8e565b60405180910390f35b61013760048036038101906101329190610ab0565b6105d7565b005b60008060009054906101000a900473ffffffffffffffffffffffffffffffffffffffff1673ffffffffffffffffffffffffffffffffffffffff1663e3b44855336040518263ffffffff1660e01b81526004016101959190610b12565b600060405180830381865afa1580156101b2573d6000803e3d6000fd5b505050506040513d6000823e3d601f19601f820116820180604052508101906101db9190610c53565b90506040518060400160405280600581526020017f41646d696e000000000000000000000000000000000000000000000000000000815250805190602001208180519060200120146102b0573373ffffffffffffffffffffffffffffffffffffffff167f37b13c29a1a7be892be1b16465e66b164f27cf7b71cbc900441215aaf08c23758260405161026d9190610879565b60405180910390a26040517f08c379a00000000000000000000000000000000000000000000000000000000081526004016102a790610d0e565b60405180910390fd5b3373ffffffffffffffffffffffffffffffffffffffff167f4babcb1d19033c79c328e85b8044e773c1f2492081e6b1e08e447e207abe811260405160405180910390a2600160009054906101000a900473ffffffffffffffffffffffffffffffffffffffff1673ffffffffffffffffffffffffffffffffffffffff1663dc32a81e84846040518363ffffffff1660e01b8152600401610350929190610d3d565b6000604051808303816000875af115801561036f573d6000803e3d6000fd5b505050506040513d6000823e3d601f19601f820116820180604052508101906103989190610c53565b508173ffffffffffffffffffffffffffffffffffffffff16837f4230922572d016bb719fc520b4b771ffdfea7b9a40e95eef06b7989c6ec370b760405160405180910390a3505050565b6060600360009054906101000a900473ffffffffffffffffffffffffffffffffffffffff1673ffffffffffffffffffffffffffffffffffffffff16633fadd6d883336040518363ffffffff1660e01b8152600401610441929190610d3d565b600060405180830381865afa15801561045e573d6000803e3d6000fd5b505050506040513d6000823e3d601f19601f820116820180604052508101906104879190610c53565b9050919050565b6060600260009054906101000a900473ffffffffffffffffffffffffffffffffffffffff1673ffffffffffffffffffffffffffffffffffffffff166326fadbe26040518163ffffffff1660e01b81526004016000604051808303816000875af11580156104ff573d6000803e3d6000fd5b505050506040513d6000823e3d601f19601f820116820180604052508101906105289190610ed5565b905090565b6060600160009054906101000a900473ffffffffffffffffffffffffffffffffffffffff1673ffffffffffffffffffffffffffffffffffffffff1663582f224a836040518263ffffffff1660e01b815260040161058a9190610f1e565b600060405180830381865afa1580156105a7573d6000803e3d6000fd5b505050506040513d6000823e3d601f19601f820116820180604052508101906105d09190610ffc565b9050919050565b600260009054906101000a900473ffffffffffffffffffffffffffffffffffffffff1673ffffffffffffffffffffffffffffffffffffffff1663d13b07bb348585856040518563ffffffff1660e01b815260040161063793929190611045565b6000604051808303818588803b15801561065057600080fd5b505af1158015610664573d6000803e3d6000fd5b5050505050828273ffffffffffffffffffffffffffffffffffffffff163373ffffffffffffffffffffffffffffffffffffffff167f30e93a40e22ddf3aafd04e83ab033dfeb3eaf9062b45d11b2e736e2759803ab1846040516106c79190610f1e565b60405180910390a4505050565b6000604051905090565b600080fd5b600080fd5b6000819050919050565b6106fb816106e8565b811461070657600080fd5b50565b600081359050610718816106f2565b92915050565b600073ffffffffffffffffffffffffffffffffffffffff82169050919050565b60006107498261071e565b9050919050565b6107598161073e565b811461076457600080fd5b50565b60008135905061077681610750565b92915050565b60008060408385031215610793576107926106de565b5b60006107a185828601610709565b92505060206107b285828601610767565b9150509250929050565b6000602082840312156107d2576107d16106de565b5b60006107e084828501610709565b91505092915050565b600081519050919050565b600082825260208201905092915050565b60005b83811015610823578082015181840152602081019050610808565b60008484015250505050565b6000601f19601f8301169050919050565b600061084b826107e9565b61085581856107f4565b9350610865818560208601610805565b61086e8161082f565b840191505092915050565b600060208201905081810360008301526108938184610840565b905092915050565b600081519050919050565b600082825260208201905092915050565b6000819050602082019050919050565b6108d0816106e8565b82525050565b6108df8161073e565b82525050565b6080820160008201516108fb60008501826108c7565b50602082015161090e60208501826108d6565b50604082015161092160408501826108c7565b50606082015161093460608501826108d6565b50505050565b600061094683836108e5565b60808301905092915050565b6000602082019050919050565b600061096a8261089b565b61097481856108a6565b935061097f836108b7565b8060005b838110156109b0578151610997888261093a565b97506109a283610952565b925050600181019050610983565b5085935050505092915050565b600060208201905081810360008301526109d7818461095f565b905092915050565b600081519050919050565b600082825260208201905092915050565b6000819050602082019050919050565b6000610a1783836108d6565b60208301905092915050565b6000602082019050919050565b6000610a3b826109df565b610a4581856109ea565b9350610a50836109fb565b8060005b83811015610a81578151610a688882610a0b565b9750610a7383610a23565b925050600181019050610a54565b5085935050505092915050565b60006020820190508181036000830152610aa88184610a30565b905092915050565b600080600060608486031215610ac957610ac86106de565b5b6000610ad786828701610709565b9350506020610ae886828701610767565b9250506040610af986828701610709565b9150509250925092565b610b0c8161073e565b82525050565b6000602082019050610b276000830184610b03565b92915050565b600080fd5b600080fd5b7f4e487b7100000000000000000000000000000000000000000000000000000000600052604160045260246000fd5b610b6f8261082f565b810181811067ffffffffffffffff82111715610b8e57610b8d610b37565b5b80604052505050565b6000610ba16106d4565b9050610bad8282610b66565b919050565b600067ffffffffffffffff821115610bcd57610bcc610b37565b5b610bd68261082f565b9050602081019050919050565b6000610bf6610bf184610bb2565b610b97565b905082815260208101848484011115610c1257610c11610b32565b5b610c1d848285610805565b509392505050565b600082601f830112610c3a57610c39610b2d565b5b8151610c4a848260208601610be3565b91505092915050565b600060208284031215610c6957610c686106de565b5b600082015167ffffffffffffffff811115610c8757610c866106e3565b5b610c9384828501610c25565b91505092915050565b7f4f6e6c792041646d696e2063616e20706572666f726d2074686973206163746960008201527f6f6e000000000000000000000000000000000000000000000000000000000000602082015250565b6000610cf86022836107f4565b9150610d0382610c9c565b604082019050919050565b60006020820190508181036000830152610d2781610ceb565b9050919050565b610d37816106e8565b82525050565b6000604082019050610d526000830185610d2e565b610d5f6020830184610b03565b9392505050565b600067ffffffffffffffff821115610d8157610d80610b37565b5b602082029050602081019050919050565b600080fd5b600080fd5b600081519050610dab816106f2565b92915050565b600081519050610dc081610750565b92915050565b600060808284031215610ddc57610ddb610d97565b5b610de66080610b97565b90506000610df684828501610d9c565b6000830152506020610e0a84828501610db1565b6020830152506040610e1e84828501610d9c565b6040830152506060610e3284828501610db1565b60608301525092915050565b6000610e51610e4c84610d66565b610b97565b90508083825260208201905060808402830185811115610e7457610e73610d92565b5b835b81811015610e9d5780610e898882610dc6565b845260208401935050608081019050610e76565b5050509392505050565b600082601f830112610ebc57610ebb610b2d565b5b8151610ecc848260208601610e3e565b91505092915050565b600060208284031215610eeb57610eea6106de565b5b600082015167ffffffffffffffff811115610f0957610f086106e3565b5b610f1584828501610ea7565b91505092915050565b6000602082019050610f336000830184610d2e565b92915050565b600067ffffffffffffffff821115610f5457610f53610b37565b5b602082029050602081019050919050565b6000610f78610f7384610f39565b610b97565b90508083825260208201905060208402830185811115610f9b57610f9a610d92565b5b835b81811015610fc45780610fb08882610db1565b845260208401935050602081019050610f9d565b5050509392505050565b600082601f830112610fe357610fe2610b2d565b5b8151610ff3848260208601610f65565b91505092915050565b600060208284031215611012576110116106de565b5b600082015167ffffffffffffffff8111156110305761102f6106e3565b5b61103c84828501610fce565b91505092915050565b600060608201905061105a6000830186610d2e565b6110676020830185610b03565b6110746040830184610d2e565b94935050505056fea2646970667358221220bafe950a963dc1453f22f536b16d274bbd383a3de369a1755ddf695cc08ce9f264736f6c63430008130033",
  "immutableReferences": {},
  "source": "// SPDX-License-Identifier: MIT\npragma solidity ^0.8.19;\n\nimport \"./UserRegistration.sol\"; \nimport \"./Report.sol\";\nimport \"./InvestigatorContract.sol\";  \nimport \"./InvestigatorAppointment.sol\"; \n\ncontract MainSystem {\n    UserRegistration userRegistry;  \n    InvestigatorContract investigatorModule;  \n    InvestigatorAppointment appointmentModule; \n    Report missingReport;  \n\n    event CaseAssigned(uint indexed caseId, address indexed investigator);\n    event AppointmentBooked(address indexed reporter, address indexed investigator, uint indexed caseId, uint timeSlot);\n    event AdminAccessChecked(address indexed admin);\n    event UnauthorizedAccess(address indexed caller, string roleAttempted);\n\n    constructor(\n        address userRegistryAddr,\n        address reportAddr,\n        address investigatorAddr,\n        address appointmentAddr\n    ) {\n        userRegistry = UserRegistration(userRegistryAddr);  \n        investigatorModule = InvestigatorContract(investigatorAddr);  \n        appointmentModule = InvestigatorAppointment(appointmentAddr);  \n        missingReport = Report(reportAddr);  \n\n        userRegistry.createUser(\"Admin\", 0, 1234567894);\n    }\n\n    modifier onlyAdmin() {\n        string memory role = userRegistry.checkUserData(msg.sender);\n        if (keccak256(bytes(role)) != keccak256(bytes(\"Admin\"))) {\n            emit UnauthorizedAccess(msg.sender, role);\n            revert(\"Only Admin can perform this action\");\n        }\n        emit AdminAccessChecked(msg.sender);\n        _;\n    }\n    \n\n    function assignCaseToInvestigator(uint caseId, address invAddress) public onlyAdmin {\n        investigatorModule.assignInvestigator(caseId, invAddress);\n        emit CaseAssigned(caseId, invAddress);\n    }\n\n    function getMissingByDivision(uint divisionId) public view returns (string memory) {\n        return missingReport.getMissingByDivision(divisionId, msg.sender);\n    }\n\n    function getInvestigatorsForCase(uint caseId) public view returns (address[] memory) {\n        return investigatorModule.getInvestigators(caseId);\n    }\n\n    function bookInvestigationSlot(uint caseId, address inv, uint timeSlot) public payable {\n        appointmentModule.bookAppointment{value: msg.value}(caseId, inv, timeSlot);\n        emit AppointmentBooked(msg.sender, inv, caseId, timeSlot);\n    }\n\n    function getMySchedule() public returns (InvestigatorAppointment.Appointment[] memory) {\n        return appointmentModule.getSchedule();\n    }\n}\n",
  "sourcePath": "/Users/ovijit/Local/dapp/mainproject/contracts/MainSystem.sol",
  "compiler": {
    "name": "solc",
    "version": "0.8.19+commit.7dd6d404.Emscripten.clang"
  },
  "schemaVersion": "3.4.16",
  "updatedAt": "2025-05-01T18:25:03.356Z",
  "networkType": "ethereum",
  "devdoc": {
    "kind": "dev",
    "methods": {},
    "version": 1
  },
  "userdoc": {
    "kind": "user",
    "methods": {},
    "version": 1
  }
}