{
  "contractName": "Report",
  "abi": [
    {
      "inputs": [
        {
          "internalType": "address",
          "name": "contractAddress",
          "type": "address"
        }
      ],
      "stateMutability": "nonpayable",
      "type": "constructor"
    },
    {
      "anonymous": false,
      "inputs": [
        {
          "indexed": false,
          "internalType": "uint256",
          "name": "caseId",
          "type": "uint256"
        },
        {
          "indexed": false,
          "internalType": "enum Report.Status",
          "name": "newStatus",
          "type": "uint8"
        }
      ],
      "name": "CaseStatusUpdated",
      "type": "event"
    },
    {
      "anonymous": false,
      "inputs": [
        {
          "indexed": false,
          "internalType": "uint256",
          "name": "divisionId",
          "type": "uint256"
        },
        {
          "indexed": false,
          "internalType": "uint256",
          "name": "count",
          "type": "uint256"
        }
      ],
      "name": "MissingCountByDivision",
      "type": "event"
    },
    {
      "anonymous": false,
      "inputs": [
        {
          "indexed": false,
          "internalType": "uint256",
          "name": "caseId",
          "type": "uint256"
        },
        {
          "indexed": true,
          "internalType": "address",
          "name": "reporter",
          "type": "address"
        }
      ],
      "name": "ReportCreated",
      "type": "event"
    },
    {
      "inputs": [
        {
          "internalType": "uint256",
          "name": "",
          "type": "uint256"
        }
      ],
      "name": "caseIds",
      "outputs": [
        {
          "internalType": "uint256",
          "name": "",
          "type": "uint256"
        }
      ],
      "stateMutability": "view",
      "type": "function",
      "constant": true
    },
    {
      "inputs": [
        {
          "internalType": "uint256",
          "name": "",
          "type": "uint256"
        }
      ],
      "name": "divisions",
      "outputs": [
        {
          "internalType": "string",
          "name": "",
          "type": "string"
        }
      ],
      "stateMutability": "view",
      "type": "function",
      "constant": true
    },
    {
      "inputs": [
        {
          "internalType": "uint256",
          "name": "",
          "type": "uint256"
        }
      ],
      "name": "missingByDivision",
      "outputs": [
        {
          "internalType": "uint256",
          "name": "",
          "type": "uint256"
        }
      ],
      "stateMutability": "view",
      "type": "function",
      "constant": true
    },
    {
      "inputs": [
        {
          "internalType": "uint256",
          "name": "",
          "type": "uint256"
        }
      ],
      "name": "reports",
      "outputs": [
        {
          "internalType": "uint256",
          "name": "id",
          "type": "uint256"
        },
        {
          "internalType": "string",
          "name": "name",
          "type": "string"
        },
        {
          "internalType": "uint256",
          "name": "age",
          "type": "uint256"
        },
        {
          "internalType": "uint256",
          "name": "height",
          "type": "uint256"
        },
        {
          "internalType": "uint256",
          "name": "status",
          "type": "uint256"
        },
        {
          "internalType": "uint256",
          "name": "priority",
          "type": "uint256"
        },
        {
          "internalType": "string",
          "name": "description",
          "type": "string"
        },
        {
          "internalType": "uint256",
          "name": "lastSeenLocation",
          "type": "uint256"
        },
        {
          "internalType": "uint256",
          "name": "relativeNumber",
          "type": "uint256"
        },
        {
          "internalType": "address",
          "name": "reporter",
          "type": "address"
        },
        {
          "internalType": "address",
          "name": "investigator",
          "type": "address"
        }
      ],
      "stateMutability": "view",
      "type": "function",
      "constant": true
    },
    {
      "inputs": [],
      "name": "userContract",
      "outputs": [
        {
          "internalType": "contract UserRegistration",
          "name": "",
          "type": "address"
        }
      ],
      "stateMutability": "view",
      "type": "function",
      "constant": true
    },
    {
      "inputs": [
        {
          "internalType": "string",
          "name": "_name",
          "type": "string"
        },
        {
          "internalType": "uint256",
          "name": "_age",
          "type": "uint256"
        },
        {
          "internalType": "uint256",
          "name": "_height",
          "type": "uint256"
        },
        {
          "internalType": "uint256",
          "name": "_status",
          "type": "uint256"
        },
        {
          "internalType": "string",
          "name": "_description",
          "type": "string"
        },
        {
          "internalType": "uint256",
          "name": "_lastLocation",
          "type": "uint256"
        },
        {
          "internalType": "uint256",
          "name": "_relativeContact",
          "type": "uint256"
        }
      ],
      "name": "createReport",
      "outputs": [
        {
          "internalType": "string",
          "name": "",
          "type": "string"
        },
        {
          "internalType": "uint256",
          "name": "",
          "type": "uint256"
        }
      ],
      "stateMutability": "nonpayable",
      "type": "function"
    },
    {
      "inputs": [],
      "name": "totalCases",
      "outputs": [
        {
          "internalType": "uint256",
          "name": "",
          "type": "uint256"
        }
      ],
      "stateMutability": "view",
      "type": "function",
      "constant": true
    },
    {
      "inputs": [
        {
          "internalType": "uint256",
          "name": "caseId",
          "type": "uint256"
        }
      ],
      "name": "updateCaseStatus",
      "outputs": [
        {
          "internalType": "string",
          "name": "",
          "type": "string"
        }
      ],
      "stateMutability": "nonpayable",
      "type": "function"
    },
    {
      "inputs": [
        {
          "internalType": "uint256",
          "name": "_division",
          "type": "uint256"
        },
        {
          "internalType": "address",
          "name": "_admin",
          "type": "address"
        }
      ],
      "name": "getMissingByDivision",
      "outputs": [
        {
          "internalType": "string",
          "name": "",
          "type": "string"
        }
      ],
      "stateMutability": "view",
      "type": "function",
      "constant": true
    }
  ],
  "bytecode": "0x6080604052600180556040518061010001604052806040518060400160405280600581526020017f4468616b6100000000000000000000000000000000000000000000000000000081525081526020016040518060400160405280600a81526020017f436869747461676f6e670000000000000000000000000000000000000000000081525081526020016040518060400160405280600681526020017f4b68756c6e61000000000000000000000000000000000000000000000000000081525081526020016040518060400160405280600781526020017f4261726973616c0000000000000000000000000000000000000000000000000081525081526020016040518060400160405280600681526020017f53796c686574000000000000000000000000000000000000000000000000000081525081526020016040518060400160405280600881526020017f52616a736861686900000000000000000000000000000000000000000000000081525081526020016040518060400160405280600781526020017f52616e677075720000000000000000000000000000000000000000000000000081525081526020016040518060400160405280600a81526020017f4d796d656e73696e6768000000000000000000000000000000000000000000008152508152506005906008620001fc92919062000277565b503480156200020a57600080fd5b50604051620026bd380380620026bd8339818101604052810190620002309190620003c1565b806000806101000a81548173ffffffffffffffffffffffffffffffffffffffff021916908373ffffffffffffffffffffffffffffffffffffffff1602179055505062000754565b8260088101928215620002b7579160200282015b82811115620002b6578251829081620002a591906200066d565b50916020019190600101906200028b565b5b509050620002c69190620002ca565b5090565b5b80821115620002ee5760008181620002e49190620002f2565b50600101620002cb565b5090565b50805462000300906200045c565b6000825580601f1062000314575062000335565b601f01602090049060005260206000209081019062000334919062000338565b5b50565b5b808211156200035357600081600090555060010162000339565b5090565b600080fd5b600073ffffffffffffffffffffffffffffffffffffffff82169050919050565b600062000389826200035c565b9050919050565b6200039b816200037c565b8114620003a757600080fd5b50565b600081519050620003bb8162000390565b92915050565b600060208284031215620003da57620003d962000357565b5b6000620003ea84828501620003aa565b91505092915050565b600081519050919050565b7f4e487b7100000000000000000000000000000000000000000000000000000000600052604160045260246000fd5b7f4e487b7100000000000000000000000000000000000000000000000000000000600052602260045260246000fd5b600060028204905060018216806200047557607f821691505b6020821081036200048b576200048a6200042d565b5b50919050565b60008190508160005260206000209050919050565b60006020601f8301049050919050565b600082821b905092915050565b600060088302620004f57fffffffffffffffffffffffffffffffffffffffffffffffffffffffffffffffff82620004b6565b620005018683620004b6565b95508019841693508086168417925050509392505050565b6000819050919050565b6000819050919050565b60006200054e62000548620005428462000519565b62000523565b62000519565b9050919050565b6000819050919050565b6200056a836200052d565b62000582620005798262000555565b848454620004c3565b825550505050565b600090565b620005996200058a565b620005a68184846200055f565b505050565b5b81811015620005ce57620005c26000826200058f565b600181019050620005ac565b5050565b601f8211156200061d57620005e78162000491565b620005f284620004a6565b8101602085101562000602578190505b6200061a6200061185620004a6565b830182620005ab565b50505b505050565b600082821c905092915050565b6000620006426000198460080262000622565b1980831691505092915050565b60006200065d83836200062f565b9150826002028217905092915050565b6200067882620003f3565b67ffffffffffffffff811115620006945762000693620003fe565b5b620006a082546200045c565b620006ad828285620005d2565b600060209050601f831160018114620006e55760008415620006d0578287015190505b620006dc85826200064f565b8655506200074c565b601f198416620006f58662000491565b60005b828110156200071f57848901518255600182019150602085019450602081019050620006f8565b868310156200073f57848901516200073b601f8916826200062f565b8355505b6001600288020188555050505b505050505050565b611f5980620007646000396000f3fe608060405234801561001057600080fd5b50600436106100935760003560e01c80635000596b116100665780635000596b146101465780635f5addf7146101645780636bbc463c146101945780639e25712a146101c4578063c942adf7146101f557610093565b8063180105ac146100985780633fadd6d8146100c857806343d04c6e146100f85780634ce5162f14610128575b600080fd5b6100b260048036038101906100ad9190610fc4565b61022f565b6040516100bf9190611081565b60405180910390f35b6100e260048036038101906100dd9190611101565b6102d2565b6040516100ef9190611081565b60405180910390f35b610112600480360381019061010d9190610fc4565b61049c565b60405161011f9190611081565b60405180910390f35b61013061075a565b60405161013d9190611150565b60405180910390f35b61014e610767565b60405161015b91906111ca565b60405180910390f35b61017e60048036038101906101799190610fc4565b61078b565b60405161018b9190611150565b60405180910390f35b6101ae60048036038101906101a99190610fc4565b6107a3565b6040516101bb9190611150565b60405180910390f35b6101de60048036038101906101d9919061131a565b6107c7565b6040516101ec9291906113f4565b60405180910390f35b61020f600480360381019061020a9190610fc4565b610c6d565b6040516102269b9a99989796959493929190611433565b60405180910390f35b6005816008811061023f57600080fd5b0160009150905080546102519061151b565b80601f016020809104026020016040519081016040528092919081815260200182805461027d9061151b565b80156102ca5780601f1061029f576101008083540402835291602001916102ca565b820191906000526020600020905b8154815290600101906020018083116102ad57829003601f168201915b505050505081565b60608260088110610318576040517f08c379a000000000000000000000000000000000000000000000000000000000815260040161030f90611598565b60405180910390fd5b60008060009054906101000a900473ffffffffffffffffffffffffffffffffffffffff1673ffffffffffffffffffffffffffffffffffffffff1663e3b44855856040518263ffffffff1660e01b815260040161037491906115b8565b600060405180830381865afa158015610391573d6000803e3d6000fd5b505050506040513d6000823e3d601f19601f820116820180604052508101906103ba9190611643565b90506040518060400160405280600581526020017f41646d696e00000000000000000000000000000000000000000000000000000081525080519060200120818051906020012014610441576040517f08c379a0000000000000000000000000000000000000000000000000000000008152600401610438906116d8565b60405180910390fd5b60058560088110610455576104546116f8565b5b016104726004600088815260200190815260200160002054610e17565b604051602001610483929190611893565b6040516020818303038152906040529250505092915050565b606060008060009054906101000a900473ffffffffffffffffffffffffffffffffffffffff1673ffffffffffffffffffffffffffffffffffffffff1663e3b44855336040518263ffffffff1660e01b81526004016104fa91906115b8565b600060405180830381865afa158015610517573d6000803e3d6000fd5b505050506040513d6000823e3d601f19601f820116820180604052508101906105409190611643565b90506040518060400160405280600581526020017f41646d696e000000000000000000000000000000000000000000000000000000815250805190602001208180519060200120146105c7576040517f08c379a00000000000000000000000000000000000000000000000000000000081526004016105be90611919565b60405180910390fd5b826000600260008381526020019081526020016000206000015403610621576040517f08c379a000000000000000000000000000000000000000000000000000000000815260040161061890611985565b60405180910390fd5b60006001811115610635576106346119a5565b5b6002600086815260200190815260200160002060040154036106b4576000600260008681526020019081526020016000206007015490506000600460008381526020019081526020016000205411156106b2576004600082815260200190815260200160002060008154809291906106ac90611a03565b91905055505b505b6001808111156106c7576106c66119a5565b5b60026000868152602001908152602001600020600401819055507f63ddd364849237939ab7ab73ff6b6d90913684f5afc06bb1de7afb96360177b7846001604051610713929190611a74565b60405180910390a16040518060400160405280601c81526020017f4361736520737461747573207570646174656420746f20466f756e640000000081525092505050919050565b6000600380549050905090565b60008054906101000a900473ffffffffffffffffffffffffffffffffffffffff1681565b60046020528060005260406000206000915090505481565b600381815481106107b357600080fd5b906000526020600020016000915090505481565b606060008060008054906101000a900473ffffffffffffffffffffffffffffffffffffffff1673ffffffffffffffffffffffffffffffffffffffff16631e9d48cf336040518263ffffffff1660e01b815260040161082591906115b8565b602060405180830381865afa158015610842573d6000803e3d6000fd5b505050506040513d601f19601f820116820180604052508101906108669190611ab2565b036108a6576040517f08c379a000000000000000000000000000000000000000000000000000000000815260040161089d90611b2b565b60405180910390fd5b83600881106108ea576040517f08c379a00000000000000000000000000000000000000000000000000000000081526004016108e190611598565b60405180910390fd5b600060018111156108fe576108fd6119a5565b5b87148061091c5750600180811115610919576109186119a5565b5b87145b61095b576040517f08c379a000000000000000000000000000000000000000000000000000000000815260040161095290611b97565b60405180910390fd5b600060128a101561098057600280811115610979576109786119a5565b5b90506109bb565b60328a116109a3576001600281111561099c5761099b6119a5565b5b90506109ba565b600060028111156109b7576109b66119a5565b5b90505b5b6000600160008154809291906109d090611bb7565b9190505590506040518061016001604052808281526020018d81526020018c81526020018b81526020018a81526020018381526020018981526020018881526020018781526020013373ffffffffffffffffffffffffffffffffffffffff168152602001600073ffffffffffffffffffffffffffffffffffffffff1681525060026000838152602001908152602001600020600082015181600001556020820151816001019081610a819190611d8c565b5060408201518160020155606082015181600301556080820151816004015560a0820151816005015560c0820151816006019081610abf9190611d8c565b5060e0820151816007015561010082015181600801556101208201518160090160006101000a81548173ffffffffffffffffffffffffffffffffffffffff021916908373ffffffffffffffffffffffffffffffffffffffff16021790555061014082015181600a0160006101000a81548173ffffffffffffffffffffffffffffffffffffffff021916908373ffffffffffffffffffffffffffffffffffffffff16021790555090505060006001811115610b7c57610b7b6119a5565b5b8903610bac57600460008881526020019081526020016000206000815480929190610ba690611bb7565b91905055505b60038190806001815401808255809150506001900390600052602060002001600090919091909150553373ffffffffffffffffffffffffffffffffffffffff167ea1378411f49dec7ee2ac7e50f67a0fff0c35a473c57f97386d070347037e4282604051610c1a9190611150565b60405180910390a2806040518060400160405280601b81526020017f5265706f72742063726561746564207375636365737366756c6c790000000000815250909450945050505097509795505050505050565b6002602052806000526040600020600091509050806000015490806001018054610c969061151b565b80601f0160208091040260200160405190810160405280929190818152602001828054610cc29061151b565b8015610d0f5780601f10610ce457610100808354040283529160200191610d0f565b820191906000526020600020905b815481529060010190602001808311610cf257829003601f168201915b505050505090806002015490806003015490806004015490806005015490806006018054610d3c9061151b565b80601f0160208091040260200160405190810160405280929190818152602001828054610d689061151b565b8015610db55780601f10610d8a57610100808354040283529160200191610db5565b820191906000526020600020905b815481529060010190602001808311610d9857829003601f168201915b5050505050908060070154908060080154908060090160009054906101000a900473ffffffffffffffffffffffffffffffffffffffff169080600a0160009054906101000a900473ffffffffffffffffffffffffffffffffffffffff1690508b565b606060008203610e5e576040518060400160405280600181526020017f30000000000000000000000000000000000000000000000000000000000000008152509050610f75565b600082905060005b60008214610e90578080610e7990611bb7565b915050600a82610e899190611e8d565b9150610e66565b60008167ffffffffffffffff811115610eac57610eab6111ef565b5b6040519080825280601f01601f191660200182016040528015610ede5781602001600182028036833780820191505090505b50905060008290505b60008614610f6d57600a86610efc9190611ebe565b6030610f089190611eef565b60f81b8282610f1690611a03565b92508281518110610f2a57610f296116f8565b5b60200101907effffffffffffffffffffffffffffffffffffffffffffffffffffffffffffff1916908160001a905350600a86610f669190611e8d565b9550610ee7565b819450505050505b919050565b6000604051905090565b600080fd5b600080fd5b6000819050919050565b610fa181610f8e565b8114610fac57600080fd5b50565b600081359050610fbe81610f98565b92915050565b600060208284031215610fda57610fd9610f84565b5b6000610fe884828501610faf565b91505092915050565b600081519050919050565b600082825260208201905092915050565b60005b8381101561102b578082015181840152602081019050611010565b60008484015250505050565b6000601f19601f8301169050919050565b600061105382610ff1565b61105d8185610ffc565b935061106d81856020860161100d565b61107681611037565b840191505092915050565b6000602082019050818103600083015261109b8184611048565b905092915050565b600073ffffffffffffffffffffffffffffffffffffffff82169050919050565b60006110ce826110a3565b9050919050565b6110de816110c3565b81146110e957600080fd5b50565b6000813590506110fb816110d5565b92915050565b6000806040838503121561111857611117610f84565b5b600061112685828601610faf565b9250506020611137858286016110ec565b9150509250929050565b61114a81610f8e565b82525050565b60006020820190506111656000830184611141565b92915050565b6000819050919050565b600061119061118b611186846110a3565b61116b565b6110a3565b9050919050565b60006111a282611175565b9050919050565b60006111b482611197565b9050919050565b6111c4816111a9565b82525050565b60006020820190506111df60008301846111bb565b92915050565b600080fd5b600080fd5b7f4e487b7100000000000000000000000000000000000000000000000000000000600052604160045260246000fd5b61122782611037565b810181811067ffffffffffffffff82111715611246576112456111ef565b5b80604052505050565b6000611259610f7a565b9050611265828261121e565b919050565b600067ffffffffffffffff821115611285576112846111ef565b5b61128e82611037565b9050602081019050919050565b82818337600083830152505050565b60006112bd6112b88461126a565b61124f565b9050828152602081018484840111156112d9576112d86111ea565b5b6112e484828561129b565b509392505050565b600082601f830112611301576113006111e5565b5b81356113118482602086016112aa565b91505092915050565b600080600080600080600060e0888a03121561133957611338610f84565b5b600088013567ffffffffffffffff81111561135757611356610f89565b5b6113638a828b016112ec565b97505060206113748a828b01610faf565b96505060406113858a828b01610faf565b95505060606113968a828b01610faf565b945050608088013567ffffffffffffffff8111156113b7576113b6610f89565b5b6113c38a828b016112ec565b93505060a06113d48a828b01610faf565b92505060c06113e58a828b01610faf565b91505092959891949750929550565b6000604082019050818103600083015261140e8185611048565b905061141d6020830184611141565b9392505050565b61142d816110c3565b82525050565b600061016082019050611449600083018e611141565b818103602083015261145b818d611048565b905061146a604083018c611141565b611477606083018b611141565b611484608083018a611141565b61149160a0830189611141565b81810360c08301526114a38188611048565b90506114b260e0830187611141565b6114c0610100830186611141565b6114ce610120830185611424565b6114dc610140830184611424565b9c9b505050505050505050505050565b7f4e487b7100000000000000000000000000000000000000000000000000000000600052602260045260246000fd5b6000600282049050600182168061153357607f821691505b602082108103611546576115456114ec565b5b50919050565b7f496e76616c6964206469766973696f6e20494400000000000000000000000000600082015250565b6000611582601383610ffc565b915061158d8261154c565b602082019050919050565b600060208201905081810360008301526115b181611575565b9050919050565b60006020820190506115cd6000830184611424565b92915050565b60006115e66115e18461126a565b61124f565b905082815260208101848484011115611602576116016111ea565b5b61160d84828561100d565b509392505050565b600082601f83011261162a576116296111e5565b5b815161163a8482602086016115d3565b91505092915050565b60006020828403121561165957611658610f84565b5b600082015167ffffffffffffffff81111561167757611676610f89565b5b61168384828501611615565b91505092915050565b7f4f6e6c792061646d696e2063616e206163636573730000000000000000000000600082015250565b60006116c2601583610ffc565b91506116cd8261168c565b602082019050919050565b600060208201905081810360008301526116f1816116b5565b9050919050565b7f4e487b7100000000000000000000000000000000000000000000000000000000600052603260045260246000fd5b600081905092915050565b7f4d697373696e6720706572736f6e7320696e2000000000000000000000000000600082015250565b6000611768601383611727565b915061177382611732565b601382019050919050565b60008190508160005260206000209050919050565b600081546117a08161151b565b6117aa8186611727565b945060018216600081146117c557600181146117da5761180d565b60ff198316865281151582028601935061180d565b6117e38561177e565b60005b83811015611805578154818901526001820191506020810190506117e6565b838801955050505b50505092915050565b7f3a20000000000000000000000000000000000000000000000000000000000000600082015250565b600061184c600283611727565b915061185782611816565b600282019050919050565b600061186d82610ff1565b6118778185611727565b935061188781856020860161100d565b80840191505092915050565b600061189e8261175b565b91506118aa8285611793565b91506118b58261183f565b91506118c18284611862565b91508190509392505050565b7f4f6e6c792061646d696e20616c6c6f7765640000000000000000000000000000600082015250565b6000611903601283610ffc565b915061190e826118cd565b602082019050919050565b60006020820190508181036000830152611932816118f6565b9050919050565b7f43617365206e6f7420666f756e64000000000000000000000000000000000000600082015250565b600061196f600e83610ffc565b915061197a82611939565b602082019050919050565b6000602082019050818103600083015261199e81611962565b9050919050565b7f4e487b7100000000000000000000000000000000000000000000000000000000600052602160045260246000fd5b7f4e487b7100000000000000000000000000000000000000000000000000000000600052601160045260246000fd5b6000611a0e82610f8e565b915060008203611a2157611a206119d4565b5b600182039050919050565b60028110611a3d57611a3c6119a5565b5b50565b6000819050611a4e82611a2c565b919050565b6000611a5e82611a40565b9050919050565b611a6e81611a53565b82525050565b6000604082019050611a896000830185611141565b611a966020830184611a65565b9392505050565b600081519050611aac81610f98565b92915050565b600060208284031215611ac857611ac7610f84565b5b6000611ad684828501611a9d565b91505092915050565b7f506c656173652072656769737465722066697273740000000000000000000000600082015250565b6000611b15601583610ffc565b9150611b2082611adf565b602082019050919050565b60006020820190508181036000830152611b4481611b08565b9050919050565b7f496e76616c696420737461747573000000000000000000000000000000000000600082015250565b6000611b81600e83610ffc565b9150611b8c82611b4b565b602082019050919050565b60006020820190508181036000830152611bb081611b74565b9050919050565b6000611bc282610f8e565b91507fffffffffffffffffffffffffffffffffffffffffffffffffffffffffffffffff8203611bf457611bf36119d4565b5b600182019050919050565b60006020601f8301049050919050565b600082821b905092915050565b600060088302611c4c7fffffffffffffffffffffffffffffffffffffffffffffffffffffffffffffffff82611c0f565b611c568683611c0f565b95508019841693508086168417925050509392505050565b6000611c89611c84611c7f84610f8e565b61116b565b610f8e565b9050919050565b6000819050919050565b611ca383611c6e565b611cb7611caf82611c90565b848454611c1c565b825550505050565b600090565b611ccc611cbf565b611cd7818484611c9a565b505050565b5b81811015611cfb57611cf0600082611cc4565b600181019050611cdd565b5050565b601f821115611d4057611d118161177e565b611d1a84611bff565b81016020851015611d29578190505b611d3d611d3585611bff565b830182611cdc565b50505b505050565b600082821c905092915050565b6000611d6360001984600802611d45565b1980831691505092915050565b6000611d7c8383611d52565b9150826002028217905092915050565b611d9582610ff1565b67ffffffffffffffff811115611dae57611dad6111ef565b5b611db8825461151b565b611dc3828285611cff565b600060209050601f831160018114611df65760008415611de4578287015190505b611dee8582611d70565b865550611e56565b601f198416611e048661177e565b60005b82811015611e2c57848901518255600182019150602085019450602081019050611e07565b86831015611e495784890151611e45601f891682611d52565b8355505b6001600288020188555050505b505050505050565b7f4e487b7100000000000000000000000000000000000000000000000000000000600052601260045260246000fd5b6000611e9882610f8e565b9150611ea383610f8e565b925082611eb357611eb2611e5e565b5b828204905092915050565b6000611ec982610f8e565b9150611ed483610f8e565b925082611ee457611ee3611e5e565b5b828206905092915050565b6000611efa82610f8e565b9150611f0583610f8e565b9250828201905080821115611f1d57611f1c6119d4565b5b9291505056fea2646970667358221220aaa8359d6814304f150119d62c7fdf50dd6d75ebc275422127853fef92ec8f9764736f6c63430008130033",
  "immutableReferences": {},
  "source": "// SPDX-License-Identifier: MIT\npragma solidity ^0.8.19;\n\nimport \"./UserRegistration.sol\";\n\ncontract Report {\n    enum Status {Missing, Found}\n    enum Priority {Low, Medium, High}\n\n    UserRegistration public userContract;\n    uint private caseCounter = 1;\n\n    constructor(address contractAddress) {\n        userContract = UserRegistration(contractAddress);\n    }\n\n    struct MissingReport {\n        uint id;\n        string name;\n        uint age;\n        uint height;\n        uint status;\n        uint priority;\n        string description;\n        uint lastSeenLocation;\n        uint relativeNumber;\n        address reporter;\n        address investigator;\n    }\n\n    mapping(uint => MissingReport) public reports;\n    uint[] public caseIds;\n    mapping(uint => uint) public missingByDivision;\n\n    string[8] public divisions = [\n        \"Dhaka\", \"Chittagong\", \"Khulna\", \"Barisal\", \n        \"Sylhet\", \"Rajshahi\", \"Rangpur\", \"Mymensingh\"\n    ];\n\n    event ReportCreated(uint caseId, address indexed reporter);\n    event CaseStatusUpdated(uint caseId, Status newStatus);\n    event MissingCountByDivision(uint divisionId, uint count);\n\n    modifier onlyRegistered() {\n        require(userContract.checkUser(msg.sender) != 0, \"Please register first\");\n        _;\n    }\n\n    modifier onlyAdmin() {\n        string memory role = userContract.checkUserData(msg.sender);\n        require(keccak256(bytes(role)) == keccak256(bytes(\"Admin\")), \"Only admin allowed\");\n        _;\n    }\n\n    modifier validDivision(uint _divisionId) {\n        require(_divisionId < 8, \"Invalid division ID\");\n        _;\n    }\n\n    modifier caseExists(uint caseId) {\n        require(reports[caseId].id != 0, \"Case not found\");\n        _;\n    }\n\n    function createReport(\n        string memory _name,\n        uint _age,\n        uint _height,\n        uint _status,\n        string memory _description,\n        uint _lastLocation,\n        uint _relativeContact\n    ) public onlyRegistered validDivision(_lastLocation) returns (string memory, uint) {\n        require(_status == uint(Status.Missing) || _status == uint(Status.Found), \"Invalid status\");\n\n        uint priorityIndex;\n        if (_age < 18) {\n            priorityIndex = uint(Priority.High);\n        } else if (_age <= 50) {\n            priorityIndex = uint(Priority.Medium);\n        } else {\n            priorityIndex = uint(Priority.Low);\n        }\n\n        uint currentId = caseCounter++;\n\n        reports[currentId] = MissingReport(\n            currentId,\n            _name,\n            _age,\n            _height,\n            _status,\n            priorityIndex,\n            _description,\n            _lastLocation,\n            _relativeContact,\n            msg.sender,\n            address(0)\n        );\n\n        if (_status == uint(Status.Missing)) {\n            missingByDivision[_lastLocation]++;\n        }\n\n        caseIds.push(currentId);\n\n        emit ReportCreated(currentId, msg.sender);\n        return (\"Report created successfully\", currentId);\n    }\n\n    function totalCases() public view returns (uint) {\n        return caseIds.length;\n    }\n\n    function updateCaseStatus(uint caseId) external onlyAdmin caseExists(caseId) returns (string memory) {\n        if (reports[caseId].status == uint(Status.Missing)) {\n            uint divId = reports[caseId].lastSeenLocation;\n            if (missingByDivision[divId] > 0) {\n                missingByDivision[divId]--;\n            }\n        }\n\n        reports[caseId].status = uint(Status.Found);\n        emit CaseStatusUpdated(caseId, Status.Found);\n        return \"Case status updated to Found\";\n    }\n\n    function getMissingByDivision(uint _division, address _admin) \n        external \n        view \n        validDivision(_division) \n        returns (string memory) \n    {\n        string memory role = userContract.checkUserData(_admin);\n        require(keccak256(bytes(role)) == keccak256(bytes(\"Admin\")), \"Only admin can access\");\n\n        return string(\n            abi.encodePacked(\n                \"Missing persons in \",\n                divisions[_division],\n                \": \",\n                uint2str(missingByDivision[_division])\n            )\n        );\n    }\n\n    // ---------------- Utility -------------------\n    function uint2str(uint _i) internal pure returns (string memory str) {\n        if (_i == 0) return \"0\";\n        uint j = _i;\n        uint len;\n        while (j != 0) {\n            len++;\n            j /= 10;\n        }\n        bytes memory bstr = new bytes(len);\n        uint k = len;\n        while (_i != 0) {\n            bstr[--k] = bytes1(uint8(48 + _i % 10));\n            _i /= 10;\n        }\n        str = string(bstr);\n    }\n}\n",
  "sourcePath": "/Users/ovijit/Local/dapp/mainproject/contracts/Report.sol",
  "compiler": {
    "name": "solc",
    "version": "0.8.19+commit.7dd6d404.Emscripten.clang"
  },
  "schemaVersion": "3.4.16",
  "updatedAt": "2025-05-01T18:25:03.375Z",
  "networkType": "ethereum",
  "devdoc": {
    "kind": "dev",
    "methods": {},
    "version": 1
  },
  "userdoc": {
    "kind": "user",
    "methods": {},
    "version": 1
  }
}