{
  "contractName": "UserRegistration",
  "abi": [
    {
      "anonymous": false,
      "inputs": [
        {
          "indexed": true,
          "internalType": "address",
          "name": "user",
          "type": "address"
        },
        {
          "indexed": false,
          "internalType": "enum UserRegistration.Role",
          "name": "role",
          "type": "uint8"
        }
      ],
      "name": "UserChecked",
      "type": "event"
    },
    {
      "anonymous": false,
      "inputs": [
        {
          "indexed": true,
          "internalType": "address",
          "name": "user",
          "type": "address"
        },
        {
          "indexed": false,
          "internalType": "string",
          "name": "name",
          "type": "string"
        },
        {
          "indexed": false,
          "internalType": "enum UserRegistration.Role",
          "name": "role",
          "type": "uint8"
        },
        {
          "indexed": false,
          "internalType": "uint256",
          "name": "NID",
          "type": "uint256"
        }
      ],
      "name": "UserCreated",
      "type": "event"
    },
    {
      "inputs": [
        {
          "internalType": "string",
          "name": "_name",
          "type": "string"
        },
        {
          "internalType": "uint256",
          "name": "role",
          "type": "uint256"
        },
        {
          "internalType": "uint256",
          "name": "NID",
          "type": "uint256"
        }
      ],
      "name": "createUser",
      "outputs": [
        {
          "internalType": "string",
          "name": "",
          "type": "string"
        }
      ],
      "stateMutability": "nonpayable",
      "type": "function"
    },
    {
      "inputs": [
        {
          "internalType": "address",
          "name": "user",
          "type": "address"
        }
      ],
      "name": "checkUserData",
      "outputs": [
        {
          "internalType": "string",
          "name": "",
          "type": "string"
        }
      ],
      "stateMutability": "view",
      "type": "function",
      "constant": true
    },
    {
      "inputs": [
        {
          "internalType": "address",
          "name": "addr",
          "type": "address"
        }
      ],
      "name": "checkUser",
      "outputs": [
        {
          "internalType": "uint256",
          "name": "",
          "type": "uint256"
        }
      ],
      "stateMutability": "view",
      "type": "function",
      "constant": true
    }
  ],
  "bytecode": "0x608060405234801561001057600080fd5b506110cc806100206000396000f3fe608060405234801561001057600080fd5b50600436106100415760003560e01c806308ea7d21146100465780631e9d48cf14610076578063e3b44855146100a6575b600080fd5b610060600480360381019061005b91906108e8565b6100d6565b60405161006d91906109d6565b60405180910390f35b610090600480360381019061008b9190610a56565b610476565b60405161009d9190610a92565b60405180910390f35b6100c060048036038101906100bb9190610a56565b610520565b6040516100cd91906109d6565b60405180910390f35b6060600073ffffffffffffffffffffffffffffffffffffffff166000803373ffffffffffffffffffffffffffffffffffffffff1673ffffffffffffffffffffffffffffffffffffffff16815260200190815260200160002060020160019054906101000a900473ffffffffffffffffffffffffffffffffffffffff1673ffffffffffffffffffffffffffffffffffffffff16146101a8576040517f08c379a000000000000000000000000000000000000000000000000000000000815260040161019f90610af9565b60405180910390fd5b8160005b60018054905081101561022c5781600182815481106101ce576101cd610b19565b5b906000526020600020015403610219576040517f08c379a000000000000000000000000000000000000000000000000000000000815260040161021090610b94565b60405180910390fd5b808061022490610be3565b9150506101ac565b506002808111156102405761023f610c2b565b5b841115610282576040517f08c379a000000000000000000000000000000000000000000000000000000000815260040161027990610ca6565b60405180910390fd5b600084600281111561029757610296610c2b565b5b905060405180608001604052808781526020018581526020018260028111156102c3576102c2610c2b565b5b81526020013373ffffffffffffffffffffffffffffffffffffffff168152506000803373ffffffffffffffffffffffffffffffffffffffff1673ffffffffffffffffffffffffffffffffffffffff16815260200190815260200160002060008201518160000190816103359190610ed2565b506020820151816001015560408201518160020160006101000a81548160ff0219169083600281111561036b5761036a610c2b565b5b021790555060608201518160020160016101000a81548173ffffffffffffffffffffffffffffffffffffffff021916908373ffffffffffffffffffffffffffffffffffffffff16021790555090505060018490806001815401808255809150506001900390600052602060002001600090919091909150553373ffffffffffffffffffffffffffffffffffffffff167f3685006c85419be5f10cf842732df5699b68e636a8294a1ec10439c206197eb287838760405161042d93929190610fec565b60405180910390a26040518060400160405280601981526020017f557365722063726561746564207375636365737366756c6c7900000000000000815250925050509392505050565b60008073ffffffffffffffffffffffffffffffffffffffff166000808473ffffffffffffffffffffffffffffffffffffffff1673ffffffffffffffffffffffffffffffffffffffff16815260200190815260200160002060020160019054906101000a900473ffffffffffffffffffffffffffffffffffffffff1673ffffffffffffffffffffffffffffffffffffffff1603610513576000610516565b60015b60ff169050919050565b6060600073ffffffffffffffffffffffffffffffffffffffff166000808473ffffffffffffffffffffffffffffffffffffffff1673ffffffffffffffffffffffffffffffffffffffff16815260200190815260200160002060020160019054906101000a900473ffffffffffffffffffffffffffffffffffffffff1673ffffffffffffffffffffffffffffffffffffffff16036105f2576040517f08c379a00000000000000000000000000000000000000000000000000000000081526004016105e990611076565b60405180910390fd5b60008060008473ffffffffffffffffffffffffffffffffffffffff1673ffffffffffffffffffffffffffffffffffffffff16815260200190815260200160002060020160009054906101000a900460ff1690506000600281111561065957610658610c2b565b5b81600281111561066c5761066b610c2b565b5b036106af576040518060400160405280600581526020017f41646d696e000000000000000000000000000000000000000000000000000000815250915050610753565b600160028111156106c3576106c2610c2b565b5b8160028111156106d6576106d5610c2b565b5b03610719576040518060400160405280600881526020017f5265706f72746572000000000000000000000000000000000000000000000000815250915050610753565b6040518060400160405280600c81526020017f496e76657374696761746f7200000000000000000000000000000000000000008152509150505b919050565b6000604051905090565b600080fd5b600080fd5b600080fd5b600080fd5b6000601f19601f8301169050919050565b7f4e487b7100000000000000000000000000000000000000000000000000000000600052604160045260246000fd5b6107bf82610776565b810181811067ffffffffffffffff821117156107de576107dd610787565b5b80604052505050565b60006107f1610758565b90506107fd82826107b6565b919050565b600067ffffffffffffffff82111561081d5761081c610787565b5b61082682610776565b9050602081019050919050565b82818337600083830152505050565b600061085561085084610802565b6107e7565b90508281526020810184848401111561087157610870610771565b5b61087c848285610833565b509392505050565b600082601f8301126108995761089861076c565b5b81356108a9848260208601610842565b91505092915050565b6000819050919050565b6108c5816108b2565b81146108d057600080fd5b50565b6000813590506108e2816108bc565b92915050565b60008060006060848603121561090157610900610762565b5b600084013567ffffffffffffffff81111561091f5761091e610767565b5b61092b86828701610884565b935050602061093c868287016108d3565b925050604061094d868287016108d3565b9150509250925092565b600081519050919050565b600082825260208201905092915050565b60005b83811015610991578082015181840152602081019050610976565b60008484015250505050565b60006109a882610957565b6109b28185610962565b93506109c2818560208601610973565b6109cb81610776565b840191505092915050565b600060208201905081810360008301526109f0818461099d565b905092915050565b600073ffffffffffffffffffffffffffffffffffffffff82169050919050565b6000610a23826109f8565b9050919050565b610a3381610a18565b8114610a3e57600080fd5b50565b600081359050610a5081610a2a565b92915050565b600060208284031215610a6c57610a6b610762565b5b6000610a7a84828501610a41565b91505092915050565b610a8c816108b2565b82525050565b6000602082019050610aa76000830184610a83565b92915050565b7f5573657220616c72656164792072656769737465726564000000000000000000600082015250565b6000610ae3601783610962565b9150610aee82610aad565b602082019050919050565b60006020820190508181036000830152610b1281610ad6565b9050919050565b7f4e487b7100000000000000000000000000000000000000000000000000000000600052603260045260246000fd5b7f4e494420616c7265616479206578697374730000000000000000000000000000600082015250565b6000610b7e601283610962565b9150610b8982610b48565b602082019050919050565b60006020820190508181036000830152610bad81610b71565b9050919050565b7f4e487b7100000000000000000000000000000000000000000000000000000000600052601160045260246000fd5b6000610bee826108b2565b91507fffffffffffffffffffffffffffffffffffffffffffffffffffffffffffffffff8203610c2057610c1f610bb4565b5b600182019050919050565b7f4e487b7100000000000000000000000000000000000000000000000000000000600052602160045260246000fd5b7f496e76616c696420726f6c6520696e6465780000000000000000000000000000600082015250565b6000610c90601283610962565b9150610c9b82610c5a565b602082019050919050565b60006020820190508181036000830152610cbf81610c83565b9050919050565b7f4e487b7100000000000000000000000000000000000000000000000000000000600052602260045260246000fd5b60006002820490506001821680610d0d57607f821691505b602082108103610d2057610d1f610cc6565b5b50919050565b60008190508160005260206000209050919050565b60006020601f8301049050919050565b600082821b905092915050565b600060088302610d887fffffffffffffffffffffffffffffffffffffffffffffffffffffffffffffffff82610d4b565b610d928683610d4b565b95508019841693508086168417925050509392505050565b6000819050919050565b6000610dcf610dca610dc5846108b2565b610daa565b6108b2565b9050919050565b6000819050919050565b610de983610db4565b610dfd610df582610dd6565b848454610d58565b825550505050565b600090565b610e12610e05565b610e1d818484610de0565b505050565b5b81811015610e4157610e36600082610e0a565b600181019050610e23565b5050565b601f821115610e8657610e5781610d26565b610e6084610d3b565b81016020851015610e6f578190505b610e83610e7b85610d3b565b830182610e22565b50505b505050565b600082821c905092915050565b6000610ea960001984600802610e8b565b1980831691505092915050565b6000610ec28383610e98565b9150826002028217905092915050565b610edb82610957565b67ffffffffffffffff811115610ef457610ef3610787565b5b610efe8254610cf5565b610f09828285610e45565b600060209050601f831160018114610f3c5760008415610f2a578287015190505b610f348582610eb6565b865550610f9c565b601f198416610f4a86610d26565b60005b82811015610f7257848901518255600182019150602085019450602081019050610f4d565b86831015610f8f5784890151610f8b601f891682610e98565b8355505b6001600288020188555050505b505050505050565b60038110610fb557610fb4610c2b565b5b50565b6000819050610fc682610fa4565b919050565b6000610fd682610fb8565b9050919050565b610fe681610fcb565b82525050565b60006060820190508181036000830152611006818661099d565b90506110156020830185610fdd565b6110226040830184610a83565b949350505050565b7f55736572206e6f7420666f756e64000000000000000000000000000000000000600082015250565b6000611060600e83610962565b915061106b8261102a565b602082019050919050565b6000602082019050818103600083015261108f81611053565b905091905056fea26469706673582212202b739370924bcc6884e0ec5265f2f9453a35c0901ed45b56f88f80d5ca89eb6464736f6c63430008130033",
  "immutableReferences": {},
  "source": "// SPDX-License-Identifier: MIT\npragma solidity ^0.8.19;\n\ncontract UserRegistration {\n    enum Role {Admin, Reporter, Investigator}\n\n    struct User {\n        string name;\n        uint NID;\n        Role role;\n        address userAddress;\n    }\n\n    mapping(address => User) private users;\n    uint[] private nids;\n\n   \n    event UserCreated(address indexed user, string name, Role role, uint NID);\n    event UserChecked(address indexed user, Role role);\n\n   \n    modifier onlyUnregistered() {\n        require(users[msg.sender].userAddress == address(0), \"User already registered\");\n        _;\n    }\n\n\n\n    modifier uniqueNID(uint NID) {\n        for (uint i = 0; i < nids.length; i++) {\n            require(nids[i] != NID, \"NID already exists\");\n        }\n        _;\n    }\n\n    function createUser(string memory _name, uint role, uint NID)\n        public\n        onlyUnregistered\n        uniqueNID(NID)\n        returns (string memory)\n    {\n        require(role <= uint(Role.Investigator), \"Invalid role index\");\n\n        Role userRole = Role(role);\n        users[msg.sender] = User(_name, NID, userRole, msg.sender);\n        nids.push(NID);\n\n        emit UserCreated(msg.sender, _name, userRole, NID);\n        return \"User created successfully\";\n    }\n\n    function checkUserData(address user) external view returns (string memory) {\n        require(users[user].userAddress != address(0), \"User not found\");\n\n        Role r = users[user].role;\n\n        if (r == Role.Admin) return \"Admin\";\n        else if (r == Role.Reporter) return \"Reporter\";\n        else return \"Investigator\";\n    }\n\n\n    function checkUser(address addr) external view returns (uint) {\n        return users[addr].userAddress != address(0) ? 1 : 0;\n    }\n}\n",
  "sourcePath": "/Users/ovijit/Local/dapp/mainproject/contracts/UserRegistration.sol",
  "compiler": {
    "name": "solc",
    "version": "0.8.19+commit.7dd6d404.Emscripten.clang"
  },
  "schemaVersion": "3.4.16",
  "updatedAt": "2025-05-01T18:25:03.364Z",
  "networkType": "ethereum",
  "devdoc": {
    "kind": "dev",
    "methods": {},
    "version": 1
  },
  "userdoc": {
    "kind": "user",
    "methods": {},
    "version": 1
  }
}