{
  "contractName": "MissingPersonsSystem",
  "abi": [
    {
      "inputs": [],
      "stateMutability": "nonpayable",
      "type": "constructor"
    },
    {
      "anonymous": false,
      "inputs": [
        {
          "indexed": true,
          "internalType": "uint256",
          "name": "caseId",
          "type": "uint256"
        },
        {
          "indexed": false,
          "internalType": "address",
          "name": "investigator",
          "type": "address"
        },
        {
          "indexed": false,
          "internalType": "uint256",
          "name": "timeSlot",
          "type": "uint256"
        },
        {
          "indexed": false,
          "internalType": "address",
          "name": "reporter",
          "type": "address"
        }
      ],
      "name": "AppointmentBooked",
      "type": "event"
    },
    {
      "anonymous": false,
      "inputs": [
        {
          "indexed": true,
          "internalType": "uint256",
          "name": "caseId",
          "type": "uint256"
        },
        {
          "indexed": false,
          "internalType": "address",
          "name": "investigator",
          "type": "address"
        }
      ],
      "name": "AppointmentCompleted",
      "type": "event"
    },
    {
      "anonymous": false,
      "inputs": [
        {
          "indexed": false,
          "internalType": "address",
          "name": "admin",
          "type": "address"
        },
        {
          "indexed": false,
          "internalType": "uint256",
          "name": "amount",
          "type": "uint256"
        }
      ],
      "name": "FundsWithdrawn",
      "type": "event"
    },
    {
      "anonymous": false,
      "inputs": [
        {
          "indexed": true,
          "internalType": "uint256",
          "name": "caseId",
          "type": "uint256"
        },
        {
          "indexed": false,
          "internalType": "address",
          "name": "investigator",
          "type": "address"
        }
      ],
      "name": "InvestigatorAssigned",
      "type": "event"
    },
    {
      "anonymous": false,
      "inputs": [
        {
          "indexed": true,
          "internalType": "uint256",
          "name": "caseId",
          "type": "uint256"
        },
        {
          "indexed": false,
          "internalType": "string",
          "name": "name",
          "type": "string"
        },
        {
          "indexed": false,
          "internalType": "string",
          "name": "division",
          "type": "string"
        },
        {
          "indexed": false,
          "internalType": "address",
          "name": "reporter",
          "type": "address"
        }
      ],
      "name": "MissingPersonReported",
      "type": "event"
    },
    {
      "anonymous": false,
      "inputs": [
        {
          "indexed": true,
          "internalType": "uint256",
          "name": "caseId",
          "type": "uint256"
        },
        {
          "indexed": false,
          "internalType": "enum MissingPersonsSystem.Status",
          "name": "newStatus",
          "type": "uint8"
        }
      ],
      "name": "StatusUpdated",
      "type": "event"
    },
    {
      "anonymous": false,
      "inputs": [
        {
          "indexed": true,
          "internalType": "address",
          "name": "user",
          "type": "address"
        },
        {
          "indexed": false,
          "internalType": "string",
          "name": "name",
          "type": "string"
        },
        {
          "indexed": false,
          "internalType": "enum MissingPersonsSystem.Role",
          "name": "role",
          "type": "uint8"
        }
      ],
      "name": "UserRegistered",
      "type": "event"
    },
    {
      "inputs": [],
      "name": "adminWallet",
      "outputs": [
        {
          "internalType": "address payable",
          "name": "",
          "type": "address"
        }
      ],
      "stateMutability": "view",
      "type": "function",
      "constant": true
    },
    {
      "inputs": [
        {
          "internalType": "bytes32",
          "name": "",
          "type": "bytes32"
        }
      ],
      "name": "reportedHash",
      "outputs": [
        {
          "internalType": "bool",
          "name": "",
          "type": "bool"
        }
      ],
      "stateMutability": "view",
      "type": "function",
      "constant": true
    },
    {
      "inputs": [
        {
          "internalType": "address",
          "name": "",
          "type": "address"
        }
      ],
      "name": "users",
      "outputs": [
        {
          "internalType": "string",
          "name": "name",
          "type": "string"
        },
        {
          "internalType": "uint256",
          "name": "nationalId",
          "type": "uint256"
        },
        {
          "internalType": "enum MissingPersonsSystem.Role",
          "name": "role",
          "type": "uint8"
        },
        {
          "internalType": "bool",
          "name": "isRegistered",
          "type": "bool"
        }
      ],
      "stateMutability": "view",
      "type": "function",
      "constant": true
    },
    {
      "inputs": [
        {
          "internalType": "string",
          "name": "_name",
          "type": "string"
        },
        {
          "internalType": "uint256",
          "name": "_roleIndex",
          "type": "uint256"
        },
        {
          "internalType": "uint256",
          "name": "_nationalId",
          "type": "uint256"
        }
      ],
      "name": "registerUser",
      "outputs": [
        {
          "internalType": "string",
          "name": "",
          "type": "string"
        }
      ],
      "stateMutability": "nonpayable",
      "type": "function"
    },
    {
      "inputs": [
        {
          "internalType": "string",
          "name": "_name",
          "type": "string"
        },
        {
          "internalType": "uint256",
          "name": "_age",
          "type": "uint256"
        },
        {
          "internalType": "uint256",
          "name": "_height",
          "type": "uint256"
        },
        {
          "internalType": "string",
          "name": "_description",
          "type": "string"
        },
        {
          "internalType": "string",
          "name": "_lastSeenLocation",
          "type": "string"
        },
        {
          "internalType": "uint256",
          "name": "_relativeContact",
          "type": "uint256"
        }
      ],
      "name": "reportMissingPerson",
      "outputs": [
        {
          "internalType": "string",
          "name": "",
          "type": "string"
        },
        {
          "internalType": "uint256",
          "name": "",
          "type": "uint256"
        }
      ],
      "stateMutability": "nonpayable",
      "type": "function"
    },
    {
      "inputs": [
        {
          "internalType": "uint256",
          "name": "caseId",
          "type": "uint256"
        }
      ],
      "name": "updatePersonStatus",
      "outputs": [
        {
          "internalType": "string",
          "name": "",
          "type": "string"
        }
      ],
      "stateMutability": "nonpayable",
      "type": "function"
    },
    {
      "inputs": [
        {
          "internalType": "uint256",
          "name": "caseId",
          "type": "uint256"
        },
        {
          "internalType": "address",
          "name": "investigator",
          "type": "address"
        }
      ],
      "name": "assignInvestigator",
      "outputs": [
        {
          "internalType": "string",
          "name": "",
          "type": "string"
        }
      ],
      "stateMutability": "nonpayable",
      "type": "function"
    },
    {
      "inputs": [
        {
          "internalType": "uint256",
          "name": "caseId",
          "type": "uint256"
        },
        {
          "internalType": "address",
          "name": "investigator",
          "type": "address"
        },
        {
          "internalType": "uint256",
          "name": "slotIndex",
          "type": "uint256"
        }
      ],
      "name": "bookAppointment",
      "outputs": [],
      "stateMutability": "payable",
      "type": "function",
      "payable": true
    },
    {
      "inputs": [
        {
          "internalType": "uint256",
          "name": "caseId",
          "type": "uint256"
        }
      ],
      "name": "getCaseDetails",
      "outputs": [
        {
          "components": [
            {
              "internalType": "uint256",
              "name": "caseId",
              "type": "uint256"
            },
            {
              "internalType": "string",
              "name": "name",
              "type": "string"
            },
            {
              "internalType": "uint256",
              "name": "age",
              "type": "uint256"
            },
            {
              "internalType": "uint256",
              "name": "height",
              "type": "uint256"
            },
            {
              "internalType": "enum MissingPersonsSystem.Status",
              "name": "status",
              "type": "uint8"
            },
            {
              "internalType": "enum MissingPersonsSystem.UrgencyLevel",
              "name": "urgency",
              "type": "uint8"
            },
            {
              "internalType": "string",
              "name": "description",
              "type": "string"
            },
            {
              "internalType": "string",
              "name": "lastSeenLocation",
              "type": "string"
            },
            {
              "internalType": "uint256",
              "name": "relativeContactNumber",
              "type": "uint256"
            },
            {
              "internalType": "address",
              "name": "reporter",
              "type": "address"
            },
            {
              "internalType": "uint256",
              "name": "reportTime",
              "type": "uint256"
            },
            {
              "internalType": "bool",
              "name": "isActive",
              "type": "bool"
            }
          ],
          "internalType": "struct MissingPersonsSystem.MissingPerson",
          "name": "",
          "type": "tuple"
        }
      ],
      "stateMutability": "view",
      "type": "function",
      "constant": true
    },
    {
      "inputs": [],
      "name": "getAllCaseIds",
      "outputs": [
        {
          "internalType": "uint256[]",
          "name": "",
          "type": "uint256[]"
        }
      ],
      "stateMutability": "view",
      "type": "function",
      "constant": true
    },
    {
      "inputs": [
        {
          "internalType": "uint256",
          "name": "start",
          "type": "uint256"
        },
        {
          "internalType": "uint256",
          "name": "count",
          "type": "uint256"
        }
      ],
      "name": "getCaseIds",
      "outputs": [
        {
          "internalType": "uint256[]",
          "name": "",
          "type": "uint256[]"
        }
      ],
      "stateMutability": "view",
      "type": "function",
      "constant": true
    },
    {
      "inputs": [
        {
          "internalType": "uint256",
          "name": "caseId",
          "type": "uint256"
        }
      ],
      "name": "getCaseUrgencyLevel",
      "outputs": [
        {
          "internalType": "string",
          "name": "",
          "type": "string"
        }
      ],
      "stateMutability": "view",
      "type": "function",
      "constant": true
    },
    {
      "inputs": [
        {
          "internalType": "uint256",
          "name": "divisionId",
          "type": "uint256"
        }
      ],
      "name": "getMissingPersonsByDivision",
      "outputs": [
        {
          "internalType": "uint256[]",
          "name": "",
          "type": "uint256[]"
        }
      ],
      "stateMutability": "view",
      "type": "function",
      "constant": true
    },
    {
      "inputs": [
        {
          "internalType": "uint256",
          "name": "id",
          "type": "uint256"
        }
      ],
      "name": "getMissingCountForDivision",
      "outputs": [
        {
          "internalType": "string",
          "name": "",
          "type": "string"
        },
        {
          "internalType": "uint256",
          "name": "",
          "type": "uint256"
        }
      ],
      "stateMutability": "view",
      "type": "function",
      "constant": true
    },
    {
      "inputs": [],
      "name": "getAllDivisionWiseMissingCounts",
      "outputs": [
        {
          "internalType": "string[]",
          "name": "divisionStats",
          "type": "string[]"
        }
      ],
      "stateMutability": "view",
      "type": "function",
      "constant": true
    },
    {
      "inputs": [
        {
          "internalType": "string",
          "name": "divisionName",
          "type": "string"
        }
      ],
      "name": "getDivisionId",
      "outputs": [
        {
          "internalType": "uint256",
          "name": "",
          "type": "uint256"
        }
      ],
      "stateMutability": "view",
      "type": "function",
      "constant": true
    },
    {
      "inputs": [
        {
          "internalType": "uint256",
          "name": "index",
          "type": "uint256"
        }
      ],
      "name": "getTimeSlotString",
      "outputs": [
        {
          "internalType": "string",
          "name": "",
          "type": "string"
        }
      ],
      "stateMutability": "pure",
      "type": "function",
      "constant": true
    },
    {
      "inputs": [
        {
          "internalType": "address",
          "name": "investigator",
          "type": "address"
        }
      ],
      "name": "getInvestigatorSchedule",
      "outputs": [
        {
          "components": [
            {
              "internalType": "uint256",
              "name": "caseId",
              "type": "uint256"
            },
            {
              "internalType": "address",
              "name": "investigator",
              "type": "address"
            },
            {
              "internalType": "uint256",
              "name": "timeSlot",
              "type": "uint256"
            },
            {
              "internalType": "address",
              "name": "reporter",
              "type": "address"
            },
            {
              "internalType": "bool",
              "name": "completed",
              "type": "bool"
            },
            {
              "internalType": "uint256",
              "name": "paymentAmount",
              "type": "uint256"
            }
          ],
          "internalType": "struct MissingPersonsSystem.Appointment[]",
          "name": "",
          "type": "tuple[]"
        }
      ],
      "stateMutability": "view",
      "type": "function",
      "constant": true
    },
    {
      "inputs": [],
      "name": "mySchedule",
      "outputs": [
        {
          "components": [
            {
              "internalType": "uint256",
              "name": "caseId",
              "type": "uint256"
            },
            {
              "internalType": "address",
              "name": "investigator",
              "type": "address"
            },
            {
              "internalType": "uint256",
              "name": "timeSlot",
              "type": "uint256"
            },
            {
              "internalType": "address",
              "name": "reporter",
              "type": "address"
            },
            {
              "internalType": "bool",
              "name": "completed",
              "type": "bool"
            },
            {
              "internalType": "uint256",
              "name": "paymentAmount",
              "type": "uint256"
            }
          ],
          "internalType": "struct MissingPersonsSystem.Appointment[]",
          "name": "",
          "type": "tuple[]"
        }
      ],
      "stateMutability": "view",
      "type": "function",
      "constant": true
    },
    {
      "inputs": [],
      "name": "myFormattedSchedule",
      "outputs": [
        {
          "internalType": "string[]",
          "name": "",
          "type": "string[]"
        }
      ],
      "stateMutability": "view",
      "type": "function",
      "constant": true
    },
    {
      "inputs": [
        {
          "internalType": "address",
          "name": "investigator",
          "type": "address"
        }
      ],
      "name": "getAvailableSlots",
      "outputs": [
        {
          "internalType": "bool[60]",
          "name": "available",
          "type": "bool[60]"
        }
      ],
      "stateMutability": "view",
      "type": "function",
      "constant": true
    },
    {
      "inputs": [],
      "name": "withdrawFunds",
      "outputs": [],
      "stateMutability": "nonpayable",
      "type": "function"
    }
  ],
  "bytecode": "0x6127106001556005610180908152644468616b6160d81b6101a0526080908152600a6101c081815269436869747461676f6e6760b01b6101e05260a0526006610200818152654b68756c6e6160d01b6102205260c05260076102408181526610985c9a5cd85b60ca1b6102605260e0526102809182526514de5b1a195d60d21b6102a0526101009190915260086102c08181526752616a736861686960c01b6102e05261012052610300828152662930b733b83ab960c91b61032052610140526103806040526103409283526909af2dacadce6d2dcced60b31b6103605261016092909252620000f192909162000287565b50348015620000ff57600080fd5b50600080546001600160a01b031916331781556040805160c0810182526005608082019081526420b236b4b760d91b60a083015281526402540be3ff6020820152919082019081526001602091820152336000908152600290915260409020815181906200016e90826200040c565b506020820151816001015560408201518160020160006101000a81548160ff02191690836002811115620001a657620001a662000351565b021790555060609190910151600290910180549115156101000261ff001990921691909117905560036020527f68818ae891ea4b3bcf4ff2e1db9831475327f7b5d44a9677c94ece10fdb7c412805460ff1916600190811790915560048054918201815560009081527f8a35acfbc15ff81a39ae7d344fd709f28e8600b4aa8c65c6b64bfe7fe36bd19b90910180546001600160a01b0319163390811790915560405190917fc2e5d5da58bd71d1a2d14cdef02a4256d971b728088f8190d067ccfbae3bd73e91620002799190620004d8565b60405180910390a262000520565b8260088101928215620002c5579160200282015b82811115620002c55782518290620002b490826200040c565b50916020019190600101906200029b565b50620002d3929150620002d7565b5090565b80821115620002d3576000620002ee8282620002f8565b50600101620002d7565b50805462000306906200037d565b6000825580601f1062000317575050565b601f0160209004906000526020600020908101906200033791906200033a565b50565b5b80821115620002d357600081556001016200033b565b634e487b7160e01b600052602160045260246000fd5b634e487b7160e01b600052604160045260246000fd5b600181811c908216806200039257607f821691505b602082108103620003b357634e487b7160e01b600052602260045260246000fd5b50919050565b601f8211156200040757600081815260208120601f850160051c81016020861015620003e25750805b601f850160051c820191505b818110156200040357828155600101620003ee565b5050505b505050565b81516001600160401b0381111562000428576200042862000367565b62000440816200043984546200037d565b84620003b9565b602080601f8311600181146200047857600084156200045f5750858301515b600019600386901b1c1916600185901b17855562000403565b600085815260208120601f198616915b82811015620004a95788860151825594840194600190910190840162000488565b5085821015620004c85787850151600019600388901b60f8161c191681555b5050505050600190811b01905550565b60408082526005908201526420b236b4b760d91b606082015260808101600383106200051457634e487b7160e01b600052602160045260246000fd5b82602083015292915050565b613c0a80620005306000396000f3fe6080604052600436106101155760003560e01c8063a82974a41161009b578063a82974a41461029b578063a87430ba146102bd578063b0ceccc5146102ed578063b0ec85601461032d578063b64936541461035b578063c09f28211461037b578063c3a90635146103a8578063d13b07bb146103d5578063d6800cab146103e8578063dc32a81e14610408578063e582a7a61461042857600080fd5b80631151c4301461011a57806317a373491461015057806324600fc31461017257806333e9212a1461018957806336b19cd71461019e57806346e09dda146101cb5780634f47b1b1146101f8578063552a74b71461022657806356417eaa14610246578063833aed0514610266578063957886cb1461027b575b600080fd5b34801561012657600080fd5b5061013a61013536600461302c565b610448565b604051610147919061304e565b60405180910390f35b34801561015c57600080fd5b50610165610542565b60405161014791906130e2565b34801561017e57600080fd5b506101876105ff565b005b34801561019557600080fd5b506101656106f0565b3480156101aa57600080fd5b506000546101be906001600160a01b031681565b6040516101479190613144565b3480156101d757600080fd5b506101eb6101e63660046131fa565b6109bf565b6040516101479190613247565b34801561020457600080fd5b50610218610213366004613261565b610c8e565b604051610147929190613304565b34801561023257600080fd5b506101eb610241366004613326565b611033565b34801561025257600080fd5b506101eb610261366004613326565b611127565b34801561027257600080fd5b5061013a611214565b34801561028757600080fd5b50610218610296366004613326565b61126c565b3480156102a757600080fd5b506102b0611373565b604051610147919061333f565b3480156102c957600080fd5b506102dd6102d83660046133e3565b611490565b6040516101479493929190613427565b3480156102f957600080fd5b5061031d610308366004613326565b60136020526000908152604090205460ff1681565b6040519015158152602001610147565b34801561033957600080fd5b5061034d610348366004613462565b611547565b604051908152602001610147565b34801561036757600080fd5b5061013a610376366004613326565b6115e2565b34801561038757600080fd5b5061039b6103963660046133e3565b611cb8565b6040516101479190613496565b3480156103b457600080fd5b506103c86103c3366004613326565b611e99565b60405161014791906134e7565b6101876103e33660046135d4565b612171565b3480156103f457600080fd5b506101eb610403366004613326565b61261b565b34801561041457600080fd5b506101eb610423366004613609565b612867565b34801561043457600080fd5b506102b06104433660046133e3565b612a69565b6006546060908181851061045f57915061053c9050565b60008261046c868861364b565b116104805761047b858761364b565b610482565b825b90506000610490878361365e565b6001600160401b038111156104a7576104a7613158565b6040519080825280602002602001820160405280156104d0578160200160208202803683370190505b509050865b8281101561053557600681815481106104f0576104f0613671565b9060005260206000200154828983610508919061365e565b8151811061051857610518613671565b60209081029190910101528061052d81613687565b9150506104d5565b5093505050505b92915050565b6040805160088082526101208201909252606091816020015b606081526020019060019003908161055b57905050905060005b60088110156105fb576000818152600f6020526040902054600782600881106105a0576105a0613671565b016105aa82612c96565b6040516020016105bb929190613747565b6040516020818303038152906040528383815181106105dc576105dc613671565b60200260200101819052505080806105f390613687565b915050610575565b5090565b3360009081526002602081905260409091200154610100900460ff16801561064b5750336000908152600260208190526040822081015460ff1690811115610649576106496133fe565b145b6106705760405162461bcd60e51b81526004016106679061377a565b60405180910390fd5b47806106ab5760405162461bcd60e51b815260206004820152600a6024820152694e6f2062616c616e636560b01b6044820152606401610667565b6106b481612d9e565b60408051338152602081018390527feaff4b37086828766ad3268786972c0cd24259d4c87a80f9d3963a3c3d999b0d910160405180910390a150565b3360009081526002602081905260409091200154606090610100900460ff168015610740575033600090815260026020819052604090912081015460ff168181111561073e5761073e6133fe565b145b61075c5760405162461bcd60e51b81526004016106679061379e565b33600090815260116020908152604080832080548251818502810185019093528083529192909190849084015b828210156108075760008481526020908190206040805160c08101825260058602909201805483526001808201546001600160a01b039081168587015260028301549385019390935260038201549283166060850152600160a01b90920460ff16151560808401526004015460a08301529083529092019101610789565b505050509050600081516001600160401b0381111561082857610828613158565b60405190808252806020026020018201604052801561085b57816020015b60608152602001906001900390816108465790505b50905060005b82518110156109b85761089083828151811061087f5761087f613671565b602002602001015160000151612c96565b600260008584815181106108a6576108a6613671565b6020026020010151606001516001600160a01b03166001600160a01b031681526020019081526020016000206000016108fb8584815181106108ea576108ea613671565b602002602001015160400151611127565b85848151811061090d5761090d613671565b602002602001015160800151610945576040518060400160405280600a815260200169202850656e64696e672960b01b815250610966565b604051806040016040528060078152602001662028446f6e652960c81b8152505b60405160200161097994939291906137c9565b60405160208183030381529060405282828151811061099a5761099a613671565b602002602001018190525080806109b090613687565b915050610861565b5091505090565b3360009081526002602081905260409091200154606090610100900460ff1615610a205760405162461bcd60e51b8152602060048201526012602482015271105b1c9958591e481c9959da5cdd195c995960721b6044820152606401610667565b6002831115610a605760405162461bcd60e51b815260206004820152600c60248201526b496e76616c696420726f6c6560a01b6044820152606401610667565b610a6982612e38565b600a14610ab05760405162461bcd60e51b81526020600482015260156024820152744e4944206d7573742062652031302064696769747360581b6044820152606401610667565b60008281526003602052604090205460ff1615610b045760405162461bcd60e51b81526020600482015260126024820152714e494420616c72656164792065786973747360701b6044820152606401610667565b6000836002811115610b1857610b186133fe565b90506040518060800160405280868152602001848152602001826002811115610b4357610b436133fe565b8152600160209182015233600090815260029091526040902081518190610b6a908261389c565b506020820151816001015560408201518160020160006101000a81548160ff02191690836002811115610b9f57610b9f6133fe565b021790555060609190910151600290910180549115156101000261ff0019909216919091179055600083815260036020526040808220805460ff191660019081179091556004805491820181559092527f8a35acfbc15ff81a39ae7d344fd709f28e8600b4aa8c65c6b64bfe7fe36bd19b90910180546001600160a01b0319163390811790915590517fc2e5d5da58bd71d1a2d14cdef02a4256d971b728088f8190d067ccfbae3bd73e90610c57908890859061395b565b60405180910390a2505060408051808201909152600f81526e155cd95c881c9959da5cdd195c9959608a1b60208201529392505050565b3360009081526002602081905260408220015460609190610100900460ff168015610ce05750600133600090815260026020819052604090912081015460ff1690811115610cde57610cde6133fe565b145b610cfc5760405162461bcd60e51b815260040161066790613986565b6000888886604051602001610d13939291906139ad565b60408051601f1981840301815291815281516020928301206000818152601390935291205490915060ff1615610d835760405162461bcd60e51b815260206004820152601560248201527410d85cd948185b1c9958591e481c995c1bdc9d1959605a1b6044820152606401610667565b6000818152601360205260408120805460ff1916600117905560128910610dba5760328911610db3576000610dbd565b6001610dbd565b60025b90506000610dca87611547565b600180549192506000919082610ddf83613687565b9190505590506040518061018001604052808281526020018d81526020018c81526020018b815260200160006001811115610e1c57610e1c6133fe565b8152602001846002811115610e3357610e336133fe565b815260208082018c905260408083018c9052606083018b90523360808401524260a0840152600160c09093018390526000858152600583522083518155908301519091820190610e83908261389c565b506040820151600282015560608201516003820155608082015160048201805460ff191660018381811115610eba57610eba6133fe565b021790555060a082015160048201805461ff001916610100836002811115610ee457610ee46133fe565b021790555060c08201516005820190610efd908261389c565b5060e08201516006820190610f12908261389c565b5061010082015160078201556101208201516008820180546001600160a01b0319166001600160a01b03909216919091179055610140820151600982015561016090910151600a909101805460ff191691151591909117905560068054600181019091557ff652222313e28459528d920b65115c16c04f3efc82aaedc97be59f3f377c0d3f018190556000828152600f60205260408120805491610fb583613687565b9190505550807f9e417c8821d98a89f4d5c53e49207255447de47aa1b8252a3d9139a0ba9bf3178d8a33604051610fee939291906139e4565b60405180910390a26040805180820190915260158152745265706f72746564207375636365737366756c6c7960581b60208201529c909b509950505050505050505050565b6000818152600560205260409020600a0154606090829060ff166110695760405162461bcd60e51b815260040161066790613a22565b600083815260056020526040902060040154610100900460ff166002816002811115611097576110976133fe565b036110c15760405180604001604052806004815260200163090d2ced60e31b815250925050611121565b60018160028111156110d5576110d56133fe565b0361110157604051806040016040528060068152602001654d656469756d60d01b815250925050611121565b604051806040016040528060038152602001624c6f7760e81b8152509250505b50919050565b60606000603c61113884600a613a48565b6111429190613a75565b61114d90601061364b565b90506000603c61115e85600a613a48565b6111689190613a89565b90506000603c61117986600a613a48565b61118490600a61364b565b61118e9190613a75565b61119990601061364b565b90506000603c6111aa87600a613a48565b6111b590600a61364b565b6111bf9190613a89565b90506111d46111cf87600161364b565b612c96565b6111de8585612e65565b6111e88484612e65565b6040516020016111fa93929190613a9d565b604051602081830303815290604052945050505050919050565b6060600680548060200260200160405190810160405280929190818152602001828054801561126257602002820191906000526020600020905b81548152602001906001019080831161124e575b5050505050905090565b60606000600883106112b65760405162461bcd60e51b8152602060048201526013602482015272125b9d985b1a5908191a5d9a5cda5bdb881251606a1b6044820152606401610667565b600783600881106112c9576112c9613671565b01600f6000858152602001908152602001600020548180546112ea906136a0565b80601f0160208091040260200160405190810160405280929190818152602001828054611316906136a0565b80156113635780601f1061133857610100808354040283529160200191611363565b820191906000526020600020905b81548152906001019060200180831161134657829003601f168201915b5050505050915091509150915091565b3360009081526002602081905260409091200154606090610100900460ff1680156113c3575033600090815260026020819052604090912081015460ff16818111156113c1576113c16133fe565b145b6113df5760405162461bcd60e51b81526004016106679061379e565b33600090815260116020908152604080832080548251818502810185019093528083529193909284015b828210156114875760008481526020908190206040805160c08101825260058602909201805483526001808201546001600160a01b039081168587015260028301549385019390935260038201549283166060850152600160a01b90920460ff16151560808401526004015460a08301529083529092019101611409565b50505050905090565b6002602052600090815260409020805481906114ab906136a0565b80601f01602080910402602001604051908101604052809291908181526020018280546114d7906136a0565b80156115245780601f106114f957610100808354040283529160200191611524565b820191906000526020600020905b81548152906001019060200180831161150757829003601f168201915b50505050600183015460029093015491929160ff80821692506101009091041684565b6000805b60088110156115a157825160208401206007826008811061156e5761156e613671565b0160405161157c9190613b10565b60405180910390200361158f5792915050565b8061159981613687565b91505061154b565b5060405162461bcd60e51b8152602060048201526015602482015274496e76616c6964206469766973696f6e206e616d6560581b6044820152606401610667565b60606000805b6006548110156119175760006006828154811061160757611607613671565b90600052602060002001549050600060056000838152602001908152602001600020604051806101800160405290816000820154815260200160018201805461164f906136a0565b80601f016020809104026020016040519081016040528092919081815260200182805461167b906136a0565b80156116c85780601f1061169d576101008083540402835291602001916116c8565b820191906000526020600020905b8154815290600101906020018083116116ab57829003601f168201915b50505091835250506002820154602082015260038201546040820152600482015460609091019060ff166001811115611703576117036133fe565b6001811115611714576117146133fe565b81526020016004820160019054906101000a900460ff16600281111561173c5761173c6133fe565b600281111561174d5761174d6133fe565b8152602001600582018054611761906136a0565b80601f016020809104026020016040519081016040528092919081815260200182805461178d906136a0565b80156117da5780601f106117af576101008083540402835291602001916117da565b820191906000526020600020905b8154815290600101906020018083116117bd57829003601f168201915b505050505081526020016006820180546117f3906136a0565b80601f016020809104026020016040519081016040528092919081815260200182805461181f906136a0565b801561186c5780601f106118415761010080835404028352916020019161186c565b820191906000526020600020905b81548152906001019060200180831161184f57829003601f168201915b50505091835250506007820154602082015260088201546001600160a01b0316604082015260098201546060820152600a9091015460ff16151560809091015260e081015190915086906118bf90611547565b1480156118e157506000816080015160018111156118df576118df6133fe565b145b80156118ef57508061016001515b1561190257836118fe81613687565b9450505b5050808061190f90613687565b9150506115e8565b506000816001600160401b0381111561193257611932613158565b60405190808252806020026020018201604052801561195b578160200160208202803683370190505b5090506000805b600654811015611cae5760006006828154811061198157611981613671565b9060005260206000200154905060006005600083815260200190815260200160002060405180610180016040529081600082015481526020016001820180546119c9906136a0565b80601f01602080910402602001604051908101604052809291908181526020018280546119f5906136a0565b8015611a425780601f10611a1757610100808354040283529160200191611a42565b820191906000526020600020905b815481529060010190602001808311611a2557829003601f168201915b50505091835250506002820154602082015260038201546040820152600482015460609091019060ff166001811115611a7d57611a7d6133fe565b6001811115611a8e57611a8e6133fe565b81526020016004820160019054906101000a900460ff166002811115611ab657611ab66133fe565b6002811115611ac757611ac76133fe565b8152602001600582018054611adb906136a0565b80601f0160208091040260200160405190810160405280929190818152602001828054611b07906136a0565b8015611b545780601f10611b2957610100808354040283529160200191611b54565b820191906000526020600020905b815481529060010190602001808311611b3757829003601f168201915b50505050508152602001600682018054611b6d906136a0565b80601f0160208091040260200160405190810160405280929190818152602001828054611b99906136a0565b8015611be65780601f10611bbb57610100808354040283529160200191611be6565b820191906000526020600020905b815481529060010190602001808311611bc957829003601f168201915b50505091835250506007820154602082015260088201546001600160a01b0316604082015260098201546060820152600a9091015460ff16151560809091015260e08101519091508890611c3990611547565b148015611c5b5750600081608001516001811115611c5957611c596133fe565b145b8015611c6957508061016001515b15611c9957818585611c7a81613687565b965081518110611c8c57611c8c613671565b6020026020010181815250505b50508080611ca690613687565b915050611962565b5090949350505050565b611cc0612f90565b6001600160a01b03821660009081526002602081905260409091200154610100900460ff168015611d1f57506001600160a01b038216600090815260026020819052604090912081015460ff1681811115611d1d57611d1d6133fe565b145b611d3b5760405162461bcd60e51b815260040161066790613b1c565b336001600160a01b0383161460005b60065481108015611d59575081155b15611dd357600060068281548110611d7357611d73613671565b60009182526020808320909101548083526005909152604090912060080154909150336001600160a01b039190911603611dc057611db18186612f19565b15611dc0576001925050611dd3565b5080611dcb81613687565b915050611d4a565b5080611e305760405162461bcd60e51b815260206004820152602660248201527f4e6f7420617574686f72697a656420746f207669657720617661696c61626c6560448201526520736c6f747360d01b6064820152608401610667565b60005b603c811015611e92576001600160a01b038416600090815260126020908152604080832084845290915290205460ff16158382603c8110611e7657611e76613671565b9115156020909202015280611e8a81613687565b915050611e33565b5050919050565b611ea1612faf565b6000828152600560205260409020600a0154829060ff16611ed45760405162461bcd60e51b815260040161066790613a22565b600560008481526020019081526020016000206040518061018001604052908160008201548152602001600182018054611f0d906136a0565b80601f0160208091040260200160405190810160405280929190818152602001828054611f39906136a0565b8015611f865780601f10611f5b57610100808354040283529160200191611f86565b820191906000526020600020905b815481529060010190602001808311611f6957829003601f168201915b50505091835250506002820154602082015260038201546040820152600482015460609091019060ff166001811115611fc157611fc16133fe565b6001811115611fd257611fd26133fe565b81526020016004820160019054906101000a900460ff166002811115611ffa57611ffa6133fe565b600281111561200b5761200b6133fe565b815260200160058201805461201f906136a0565b80601f016020809104026020016040519081016040528092919081815260200182805461204b906136a0565b80156120985780601f1061206d57610100808354040283529160200191612098565b820191906000526020600020905b81548152906001019060200180831161207b57829003601f168201915b505050505081526020016006820180546120b1906136a0565b80601f01602080910402602001604051908101604052809291908181526020018280546120dd906136a0565b801561212a5780601f106120ff5761010080835404028352916020019161212a565b820191906000526020600020905b81548152906001019060200180831161210d57829003601f168201915b50505091835250506007820154602082015260088201546001600160a01b0316604082015260098201546060820152600a9091015460ff1615156080909101529392505050565b3360009081526002602081905260409091200154610100900460ff1680156121c05750600133600090815260026020819052604090912081015460ff16908111156121be576121be6133fe565b145b6121dc5760405162461bcd60e51b815260040161066790613986565b6000838152600560205260409020600a0154839060ff1661220f5760405162461bcd60e51b815260040161066790613a22565b662386f26fc1000034101561225a5760405162461bcd60e51b81526020600482015260116024820152700c0b8c0c48115512081c995c5d5a5c9959607a1b6044820152606401610667565b6001600160a01b03831660009081526002602081905260409091200154610100900460ff1680156122b957506001600160a01b038316600090815260026020819052604090912081015460ff16818111156122b7576122b76133fe565b145b6122d55760405162461bcd60e51b815260040161066790613b1c565b603c82106123145760405162461bcd60e51b815260206004820152600c60248201526b125b9d985b1a59081cdb1bdd60a21b6044820152606401610667565b6001600160a01b038316600090815260126020908152604080832085845290915290205460ff16156123755760405162461bcd60e51b815260206004820152600a60248201526929b637ba103a30b5b2b760b11b6044820152606401610667565b6000848152600560205260409020600801546001600160a01b031633146123ce5760405162461bcd60e51b815260206004820152600d60248201526c4e6f7420796f7572206361736560981b6044820152606401610667565b6123d88484612f19565b6124205760405162461bcd60e51b8152602060048201526019602482015278125b9d995cdd1a59d85d1bdc881b9bdd08185cdcda59db9959603a1b6044820152606401610667565b601480546001818101835560008390527fce6d7b5282bd9a3661ae061feed1dbda4e52ab073b1f9285be6e155d9c38d4ec909101869055905411156124e95760005b6014546124719060019061365e565b8110156124e757846014828154811061248c5761248c613671565b9060005260206000200154036124d55760405162461bcd60e51b815260206004820152600e60248201526d105b1c9958591e48189bdbdad95960921b6044820152606401610667565b806124df81613687565b915050612462565b505b6001600160a01b0380841660008181526012602090815260408083208784528252808320805460ff1916600190811790915584845260118352818420825160c0810184528b81528085019687529283018981523360608501908152608085018781523460a0870181815285548088018755958a529790982095516005909402909501928355965192820180549389166001600160a01b03199094169390931790925590516002820155935160038501805492511515600160a01b026001600160a81b031990931691909616171790935591516004909101556125ca90612d9e565b604080516001600160a01b0385168152602081018490523381830152905185917ff13ba77a9ffceac0534181bea2b62a360bedf36f0da7ed68b43cc1a70287ca5a919081900360600190a250505050565b3360009081526002602081905260409091200154606090610100900460ff16801561266a5750336000908152600260208190526040822081015460ff1690811115612668576126686133fe565b145b6126865760405162461bcd60e51b81526004016106679061377a565b6000828152600560205260409020600a0154829060ff166126b95760405162461bcd60e51b815260040161066790613a22565b600083815260056020526040812090600482015460ff1660018111156126e1576126e16133fe565b1461271e5760405162461bcd60e51b815260206004820152600d60248201526c105b1c9958591e48199bdd5b99609a1b6044820152606401610667565b60006127b5826006018054612732906136a0565b80601f016020809104026020016040519081016040528092919081815260200182805461275e906136a0565b80156127ab5780601f10612780576101008083540402835291602001916127ab565b820191906000526020600020905b81548152906001019060200180831161278e57829003601f168201915b5050505050611547565b6000818152600f6020526040902054909150156127ec576000818152600f602052604081208054916127e683613b4a565b91905055505b60048201805460ff1916600190811790915560405186917f2da7b23ca63c1eb969eee5fae4acb98186abecf5358b0354a82a5183ebca6b2a9161282f9190613b61565b60405180910390a2505060408051808201909152601081526f155c19185d1959081d1bc8119bdd5b9960821b60208201529392505050565b3360009081526002602081905260409091200154606090610100900460ff1680156128b65750336000908152600260208190526040822081015460ff16908111156128b4576128b46133fe565b145b6128d25760405162461bcd60e51b81526004016106679061377a565b6000838152600560205260409020600a0154839060ff166129055760405162461bcd60e51b815260040161066790613a22565b6001600160a01b03831660009081526002602081905260409091200154610100900460ff16801561296457506001600160a01b038316600090815260026020819052604090912081015460ff1681811115612962576129626133fe565b145b6129805760405162461bcd60e51b815260040161066790613b1c565b61298a8484612f19565b156129bf576040518060400160405280601081526020016f105b1c9958591e48185cdcda59db995960821b8152509150612a62565b60008481526010602090815260408083208054600181018255908452919092200180546001600160a01b0319166001600160a01b0386161790555184907f331654419c673cd3af2cda5074231ad56d4c35bee9bf59d82789df8ded368d0d90612a29908690613144565b60405180910390a260405180604001604052806015815260200174125b9d995cdd1a59d85d1bdc88185cdcda59db9959605a1b81525091505b5092915050565b6001600160a01b03811660009081526002602081905260409091200154606090610100900460ff168015612acb57506001600160a01b038216600090815260026020819052604090912081015460ff1681811115612ac957612ac96133fe565b145b612ae75760405162461bcd60e51b815260040161066790613b1c565b336001600160a01b0383161460005b60065481108015612b05575081155b15612b7f57600060068281548110612b1f57612b1f613671565b60009182526020808320909101548083526005909152604090912060080154909150336001600160a01b039190911603612b6c57612b5d8186612f19565b15612b6c576001925050612b7f565b5080612b7781613687565b915050612af6565b5080612bd95760405162461bcd60e51b8152602060048201526024808201527f4e6f7420617574686f72697a656420746f20766965772074686973207363686560448201526364756c6560e01b6064820152608401610667565b6001600160a01b038316600090815260116020908152604080832080548251818502810185019093528083529193909284015b82821015612c8a5760008481526020908190206040805160c08101825260058602909201805483526001808201546001600160a01b039081168587015260028301549385019390935260038201549283166060850152600160a01b90920460ff16151560808401526004015460a08301529083529092019101612c0c565b50505050915050919050565b606081600003612cbd5750506040805180820190915260018152600360fc1b602082015290565b6000825b8015612ce75781612cd181613687565b9250612ce09050600a82613a75565b9050612cc1565b6000826001600160401b03811115612d0157612d01613158565b6040519080825280601f01601f191660200182016040528015612d2b576020820181803683370190505b5090505b8415612d9657612d4060018461365e565b9250612d4d600a86613a89565b612d5890603061364b565b60f81b818481518110612d6d57612d6d613671565b60200101906001600160f81b031916908160001a905350612d8f600a86613a75565b9450612d2f565b949350505050565b600080546040516001600160a01b039091169083908381818185875af1925050503d8060008114612deb576040519150601f19603f3d011682016040523d82523d6000602084013e612df0565b606091505b5050905080612e345760405162461bcd60e51b815260206004820152601060248201526f10591b5a5b881999594819985a5b195960821b6044820152606401610667565b5050565b6000805b80612e4681613687565b9150612e559050600a84613a75565b925082600003612e3c5792915050565b60606000600a8410612e7f57612e7a84612c96565b612ea8565b612e8884612c96565b604051602001612e989190613b6f565b6040516020818303038152906040525b90506000600a8410612ec257612ebd84612c96565b612eeb565b612ecb84612c96565b604051602001612edb9190613b6f565b6040516020818303038152906040525b90508181604051602001612f00929190613b98565b6040516020818303038152906040529250505092915050565b6000828152601060205260408120815b8154811015612f8557836001600160a01b0316828281548110612f4e57612f4e613671565b6000918252602090912001546001600160a01b031603612f735760019250505061053c565b80612f7d81613687565b915050612f29565b506000949350505050565b604051806107800160405280603c906020820280368337509192915050565b6040518061018001604052806000815260200160608152602001600081526020016000815260200160006001811115612fea57612fea6133fe565b81526020016000815260200160608152602001606081526020016000815260200160006001600160a01b03168152602001600081526020016000151581525090565b6000806040838503121561303f57600080fd5b50508035926020909101359150565b6020808252825182820181905260009190848201906040850190845b818110156130865783518352928401929184019160010161306a565b50909695505050505050565b60005b838110156130ad578181015183820152602001613095565b50506000910152565b600081518084526130ce816020860160208601613092565b601f01601f19169290920160200192915050565b6000602080830181845280855180835260408601915060408160051b870101925083870160005b8281101561313757603f198886030184526131258583516130b6565b94509285019290850190600101613109565b5092979650505050505050565b6001600160a01b0391909116815260200190565b634e487b7160e01b600052604160045260246000fd5b600082601f83011261317f57600080fd5b81356001600160401b038082111561319957613199613158565b604051601f8301601f19908116603f011681019082821181831017156131c1576131c1613158565b816040528381528660208588010111156131da57600080fd5b836020870160208301376000602085830101528094505050505092915050565b60008060006060848603121561320f57600080fd5b83356001600160401b0381111561322557600080fd5b6132318682870161316e565b9660208601359650604090950135949350505050565b60208152600061325a60208301846130b6565b9392505050565b60008060008060008060c0878903121561327a57600080fd5b86356001600160401b038082111561329157600080fd5b61329d8a838b0161316e565b9750602089013596506040890135955060608901359150808211156132c157600080fd5b6132cd8a838b0161316e565b945060808901359150808211156132e357600080fd5b506132f089828a0161316e565b92505060a087013590509295509295509295565b60408152600061331760408301856130b6565b90508260208301529392505050565b60006020828403121561333857600080fd5b5035919050565b602080825282518282018190526000919060409081850190868401855b828110156133ba57815180518552868101516001600160a01b039081168887015286820151878701526060808301519091169086015260808082015115159086015260a0908101519085015260c0909301929085019060010161335c565b5091979650505050505050565b80356001600160a01b03811681146133de57600080fd5b919050565b6000602082840312156133f557600080fd5b61325a826133c7565b634e487b7160e01b600052602160045260246000fd5b60038110613424576134246133fe565b50565b60808152600061343a60808301876130b6565b905084602083015261344b84613414565b836040830152821515606083015295945050505050565b60006020828403121561347457600080fd5b81356001600160401b0381111561348a57600080fd5b612d968482850161316e565b6107808101818360005b603c8110156134c157815115158352602092830192909101906001016134a0565b50505092915050565b600281106134da576134da6133fe565b9052565b6134da81613414565b6020815281516020820152600060208301516101808060408501526135106101a08501836130b6565b91506040850151606085015260608501516080850152608085015161353860a08601826134ca565b5060a085015161354b60c08601826134de565b5060c0850151601f19808685030160e087015261356884836130b6565b935060e0870151915061010081878603018188015261358785846130b6565b9088015161012088810191909152880151909450915061014090506135b6818701836001600160a01b03169052565b86015161016086810191909152860151801515838701529050611cae565b6000806000606084860312156135e957600080fd5b833592506135f9602085016133c7565b9150604084013590509250925092565b6000806040838503121561361c57600080fd5b8235915061362c602084016133c7565b90509250929050565b634e487b7160e01b600052601160045260246000fd5b8082018082111561053c5761053c613635565b8181038181111561053c5761053c613635565b634e487b7160e01b600052603260045260246000fd5b60006001820161369957613699613635565b5060010190565b600181811c908216806136b457607f821691505b60208210810361112157634e487b7160e01b600052602260045260246000fd5b600081546136e1816136a0565b600182811680156136f9576001811461370e5761373d565b60ff198416875282151583028701945061373d565b8560005260208060002060005b858110156137345781548a82015290840190820161371b565b50505082870194505b5050505092915050565b600061375382856136d4565b6101d160f51b8152835161376e816002840160208801613092565b01600201949350505050565b6020808252600a908201526927b7363c9030b236b4b760b11b604082015260600190565b60208082526011908201527027b7363c9034b73b32b9ba34b3b0ba37b960791b604082015260600190565b6543617365202360d01b8152600085516137ea816006850160208a01613092565b650103bb4ba34160d51b60069184019182015261380a600c8201876136d4565b90506301030ba160e51b81528451613829816004840160208901613092565b845191019061383f816004840160208801613092565b016004019695505050505050565b601f82111561389757600081815260208120601f850160051c810160208610156138745750805b601f850160051c820191505b8181101561389357828155600101613880565b5050505b505050565b81516001600160401b038111156138b5576138b5613158565b6138c9816138c384546136a0565b8461384d565b602080601f8311600181146138fe57600084156138e65750858301515b600019600386901b1c1916600185901b178555613893565b600085815260208120601f198616915b8281101561392d5788860151825594840194600190910190840161390e565b508582101561394b5787850151600019600388901b60f8161c191681555b5050505050600190811b01905550565b60408152600061396e60408301856130b6565b905061397983613414565b8260208301529392505050565b6020808252600d908201526c27b7363c903932b837b93a32b960991b604082015260600190565b600084516139bf818460208901613092565b820184815283516139d7816020808501908801613092565b0160200195945050505050565b6060815260006139f760608301866130b6565b8281036020840152613a0981866130b6565b91505060018060a01b0383166040830152949350505050565b6020808252600c908201526b496e76616c6964206361736560a01b604082015260600190565b808202811582820484141761053c5761053c613635565b634e487b7160e01b600052601260045260246000fd5b600082613a8457613a84613a5f565b500490565b600082613a9857613a98613a5f565b500690565b64029b637ba160dd1b815260008451613abd816005850160208901613092565b6101d160f51b6005918401918201528451613adf816007840160208901613092565b6201016960ed1b600792909101918201528351613b0381600a840160208801613092565b01600a0195945050505050565b600061325a82846136d4565b60208082526014908201527324b73b30b634b21034b73b32b9ba34b3b0ba37b960611b604082015260600190565b600081613b5957613b59613635565b506000190190565b6020810161053c82846134ca565b600360fc1b815260008251613b8b816001850160208701613092565b9190910160010192915050565b60008351613baa818460208801613092565b601d60f91b9083019081528351613bc8816001840160208801613092565b0160010194935050505056fea2646970667358221220e0f790be65c06de2042ab01ced9a64dc130fd01fb5d0b5cd7538b85dda305e5d64736f6c63430008130033",
  "immutableReferences": {},
  "source": "// SPDX-License-Identifier: MIT\npragma solidity ^0.8.19;\n\ncontract MissingPersonsSystem {\n    enum Role { Admin, Reporter, Investigator }\n    enum Status { Missing, Found }\n    enum UrgencyLevel { Low, Medium, High }\n\n    struct User {\n        string name;\n        uint256 nationalId;\n        Role role;\n        bool isRegistered;\n    }\n\n    struct MissingPerson {\n        uint256 caseId;\n        string name;\n        uint256 age;\n        uint256 height;\n        Status status;\n        UrgencyLevel urgency;\n        string description;\n        string lastSeenLocation;\n        uint256 relativeContactNumber;\n        address reporter;\n        uint256 reportTime;\n        bool isActive;\n    }\n\n    struct Appointment {\n        uint256 caseId;\n        address investigator;\n        uint256 timeSlot;\n        address reporter;\n        bool completed;\n        uint256 paymentAmount;\n    }\n\n    address payable public adminWallet;\n    uint256 private nextCaseId = 10000;\n\n    mapping(address => User) public users;\n    mapping(uint256 => bool) private registeredNationalIds;\n    address[] private registeredUsers;\n\n    mapping(uint256 => MissingPerson) private missingPersons;\n    uint256[] private allCaseIds;\n\n    string[8] private divisions = [\n        \"Dhaka\", \"Chittagong\", \"Khulna\", \"Barisal\",\n        \"Sylhet\", \"Rajshahi\", \"Rangpur\", \"Mymensingh\"\n    ];\n    mapping(uint256 => uint256) private missingCountByDivision;\n\n    mapping(uint256 => address[]) private caseInvestigators;\n    mapping(address => Appointment[]) private investigatorAppointments;\n    mapping(address => mapping(uint256 => bool)) private slotBooked;\n\n    mapping(bytes32 => bool) public reportedHash;\n\n    event UserRegistered(address indexed user, string name, Role role);\n    event MissingPersonReported(uint256 indexed caseId, string name, string division, address reporter);\n    event StatusUpdated(uint256 indexed caseId, Status newStatus);\n    event InvestigatorAssigned(uint256 indexed caseId, address investigator);\n    event AppointmentBooked(uint256 indexed caseId, address investigator, uint256 timeSlot, address reporter);\n    event AppointmentCompleted(uint256 indexed caseId, address investigator);\n    event FundsWithdrawn(address admin, uint256 amount);\n\n    modifier onlyAdmin() {\n        require(users[msg.sender].isRegistered && users[msg.sender].role == Role.Admin, \"Only admin\");\n        _;\n    }\n\n    modifier onlyReporter() {\n        require(users[msg.sender].isRegistered && users[msg.sender].role == Role.Reporter, \"Only reporter\");\n        _;\n    }\n\n    modifier onlyInvestigator() {\n        require(users[msg.sender].isRegistered && users[msg.sender].role == Role.Investigator, \"Only investigator\");\n        _;\n    }\n\n    modifier validCase(uint256 caseId) {\n        require(missingPersons[caseId].isActive, \"Invalid case\");\n        _;\n    }\n\n    constructor() {\n        adminWallet = payable(msg.sender);\n        users[msg.sender] = User(\"Admin\", 9999999999, Role.Admin, true);\n        registeredNationalIds[9999999999] = true;\n        registeredUsers.push(msg.sender);\n        emit UserRegistered(msg.sender, \"Admin\", Role.Admin);\n    }\n\n    function registerUser(string memory _name, uint256 _roleIndex, uint256 _nationalId) public returns (string memory) {\n        require(!users[msg.sender].isRegistered, \"Already registered\");\n        require(_roleIndex <= uint(Role.Investigator), \"Invalid role\");\n        require(_countDigits(_nationalId) == 10, \"NID must be 10 digits\");\n        require(!registeredNationalIds[_nationalId], \"NID already exists\");\n\n        Role role = Role(_roleIndex);\n        users[msg.sender] = User(_name, _nationalId, role, true);\n        registeredNationalIds[_nationalId] = true;\n        registeredUsers.push(msg.sender);\n\n        emit UserRegistered(msg.sender, _name, role);\n        return \"User registered\";\n    }\n\n    function reportMissingPerson(\n        string memory _name,\n        uint256 _age,\n        uint256 _height,\n        string memory _description,\n        string memory _lastSeenLocation,\n        uint256 _relativeContact\n    ) public onlyReporter returns (string memory, uint256) {\n        bytes32 hash = keccak256(abi.encodePacked(_name, _age, _lastSeenLocation));\n        require(!reportedHash[hash], \"Case already reported\");\n        reportedHash[hash] = true;\n\n        UrgencyLevel urgency = _age < 18\n            ? UrgencyLevel.High\n            : (_age > 50 ? UrgencyLevel.Medium : UrgencyLevel.Low);\n\n        uint256 divisionId = getDivisionId(_lastSeenLocation);\n        uint256 caseId = nextCaseId++;\n\n        missingPersons[caseId] = MissingPerson({\n            caseId: caseId,\n            name: _name,\n            age: _age,\n            height: _height,\n            status: Status.Missing,\n            urgency: urgency,\n            description: _description,\n            lastSeenLocation: _lastSeenLocation,\n            relativeContactNumber: _relativeContact,\n            reporter: msg.sender,\n            reportTime: block.timestamp,\n            isActive: true\n        });\n\n        allCaseIds.push(caseId);\n        missingCountByDivision[divisionId]++;\n\n        emit MissingPersonReported(caseId, _name, _lastSeenLocation, msg.sender);\n        return (\"Reported successfully\", caseId);\n    }\n\n    function updatePersonStatus(uint256 caseId) public onlyAdmin validCase(caseId) returns (string memory) {\n        MissingPerson storage person = missingPersons[caseId];\n        require(person.status == Status.Missing, \"Already found\");\n\n        uint256 divisionId = getDivisionId(person.lastSeenLocation);\n        if (missingCountByDivision[divisionId] > 0) {\n            missingCountByDivision[divisionId]--;\n        }\n\n        person.status = Status.Found;\n\n        emit StatusUpdated(caseId, Status.Found);\n        return \"Updated to Found\";\n    }\n\n    function assignInvestigator(uint256 caseId, address investigator) public onlyAdmin validCase(caseId) returns (string memory) {\n        require(users[investigator].isRegistered && users[investigator].role == Role.Investigator, \"Invalid investigator\");\n\n        if (_isInvestigatorAssigned(caseId, investigator)) {\n            return \"Already assigned\";\n        }\n\n        caseInvestigators[caseId].push(investigator);\n        emit InvestigatorAssigned(caseId, investigator);\n        return \"Investigator assigned\";\n    }\n\n    \n    uint[] bookcase;\n\n    function bookAppointment(uint256 caseId, address investigator, uint256 slotIndex) public payable onlyReporter validCase(caseId) {\n        require(msg.value >= 0.01 ether, \"0.01 ETH required\");\n        require(users[investigator].isRegistered && users[investigator].role == Role.Investigator, \"Invalid investigator\");\n        require(slotIndex < 60, \"Invalid slot\");\n        require(!slotBooked[investigator][slotIndex], \"Slot taken\");\n        require(missingPersons[caseId].reporter == msg.sender, \"Not your case\");\n        require(_isInvestigatorAssigned(caseId, investigator), \"Investigator not assigned\");\n        bookcase.push(caseId);\n\n        if (bookcase.length > 1) {\n            for (uint256 i = 0; i < bookcase.length - 1; i++) {\n                require(bookcase[i] != caseId, \"Already booked\");\n            }\n            \n        }\n\n\n        slotBooked[investigator][slotIndex] = true;\n        investigatorAppointments[investigator].push(Appointment(caseId, investigator, slotIndex, msg.sender, false, msg.value));\n\n        _sendAdmin(msg.value);\n\n        emit AppointmentBooked(caseId, investigator, slotIndex, msg.sender);\n    }\n\n    function getCaseDetails(uint256 caseId) public view validCase(caseId) returns (MissingPerson memory) {\n        return missingPersons[caseId];\n    }\n\n    function getAllCaseIds() public view returns (uint256[] memory) {\n        return allCaseIds;\n    }\n\n    function getCaseIds(uint256 start, uint256 count) public view returns (uint256[] memory) {\n        uint256 len = allCaseIds.length;\n\n        uint256[] memory arr;\n\n        if (start >= len) {\n            return arr;\n        }\n        uint256 end = start + count > len ? len : start + count;\n        uint256[] memory ids = new uint256[](end - start);\n\n        for (uint256 i = start; i < end; i++) {\n            ids[i - start] = allCaseIds[i];\n        }\n        return ids;\n    }\n\n    function getCaseUrgencyLevel(uint256 caseId) public view validCase(caseId) returns (string memory) {\n        UrgencyLevel level = missingPersons[caseId].urgency;\n        if (level == UrgencyLevel.High) return \"High\";\n        if (level == UrgencyLevel.Medium) return \"Medium\";\n        return \"Low\";\n    }\n\n    function getMissingPersonsByDivision(uint256 divisionId) public view returns (uint256[] memory) {\n        uint256 count;\n        for (uint256 i = 0; i < allCaseIds.length; i++) {\n            uint256 id = allCaseIds[i];\n            MissingPerson memory p = missingPersons[id];\n            if (getDivisionId(p.lastSeenLocation) == divisionId && p.status == Status.Missing && p.isActive) count++;\n        }\n\n        uint256[] memory results = new uint256[](count);\n        uint256 idx;\n        for (uint256 i = 0; i < allCaseIds.length; i++) {\n            uint256 id = allCaseIds[i];\n            MissingPerson memory p = missingPersons[id];\n            if (getDivisionId(p.lastSeenLocation) == divisionId && p.status == Status.Missing && p.isActive) {\n                results[idx++] = id;\n            }\n        }\n\n        return results;\n    }\n\n    function getMissingCountForDivision(uint256 id) public view returns (string memory, uint256) {\n        require(id < divisions.length, \"Invalid division ID\");\n        return (divisions[id], missingCountByDivision[id]);\n    }\n\n    function getAllDivisionWiseMissingCounts() external view returns (string[] memory divisionStats) {\n        divisionStats = new string[](divisions.length);\n        for (uint256 i = 0; i < divisions.length; i++) {\n            uint256 count = missingCountByDivision[i];\n            divisionStats[i] = string(abi.encodePacked(divisions[i], \": \", uint2str(count)));\n        }\n    }\n\n    function getDivisionId(string memory divisionName) public view returns (uint256) {\n        for (uint256 i = 0; i < divisions.length; i++) {\n            if (keccak256(bytes(divisions[i])) == keccak256(bytes(divisionName))) {\n                return i;\n            }\n        }\n        revert(\"Invalid division name\");\n    }\n\n    function getTimeSlotString(uint256 index) public pure returns (string memory) {\n        uint256 startHour = 16 + (index * 10) / 60;\n        uint256 startMin = (index * 10) % 60;\n        uint256 endHour = 16 + ((index * 10 + 10) / 60);\n        uint256 endMin = (index * 10 + 10) % 60;\n\n        return string(abi.encodePacked(\"Slot \", uint2str(index + 1), \": \", formatTime(startHour, startMin), \" - \", formatTime(endHour, endMin)));\n    }\n\n    function getInvestigatorSchedule(address investigator) public view returns (Appointment[] memory) {\n        require(users[investigator].isRegistered && users[investigator].role == Role.Investigator, \"Invalid investigator\");\n\n        bool isAuthorized = msg.sender == investigator;\n        for (uint256 i = 0; i < allCaseIds.length && !isAuthorized; i++) {\n            uint256 caseId = allCaseIds[i];\n            if (missingPersons[caseId].reporter == msg.sender) {\n                if (_isInvestigatorAssigned(caseId, investigator)) {\n                    isAuthorized = true;\n                    break;\n                }\n            }\n        }\n        require(isAuthorized, \"Not authorized to view this schedule\");\n        return investigatorAppointments[investigator];\n    }\n\n    function mySchedule() external view onlyInvestigator returns (Appointment[] memory) {\n        return investigatorAppointments[msg.sender];\n    }\n\n    function myFormattedSchedule() external view onlyInvestigator returns (string[] memory) {\n        Appointment[] memory appts = investigatorAppointments[msg.sender];\n        string[] memory result = new string[](appts.length);\n\n        for (uint256 i = 0; i < appts.length; i++) {\n            result[i] = string(abi.encodePacked(\n                \"Case #\", uint2str(appts[i].caseId),\n                \" with \", users[appts[i].reporter].name,\n                \" at \", getTimeSlotString(appts[i].timeSlot),\n                appts[i].completed ? \" (Done)\" : \" (Pending)\"\n            ));\n        }\n        return result;\n    }\n\n    function getAvailableSlots(address investigator) public view returns (bool[60] memory available) {\n        require(users[investigator].isRegistered && users[investigator].role == Role.Investigator, \"Invalid investigator\");\n\n        bool isAuthorized = msg.sender == investigator;\n        for (uint256 i = 0; i < allCaseIds.length && !isAuthorized; i++) {\n            uint256 caseId = allCaseIds[i];\n            if (missingPersons[caseId].reporter == msg.sender) {\n                if (_isInvestigatorAssigned(caseId, investigator)) {\n                    isAuthorized = true;\n                    break;\n                }\n            }\n        }\n        require(isAuthorized, \"Not authorized to view available slots\");\n\n        for (uint256 i = 0; i < 60; i++) {\n            available[i] = !slotBooked[investigator][i];\n        }\n    }\n\n    function withdrawFunds() public onlyAdmin {\n        uint256 balance = address(this).balance;\n        require(balance > 0, \"No balance\");\n        _sendAdmin(balance);\n        emit FundsWithdrawn(msg.sender, balance);\n    }\n\n    // ========== INTERNAL HELPERS ==========\n\n    function _isInvestigatorAssigned(uint256 caseId, address investigator) internal view returns (bool) {\n        address[] storage list = caseInvestigators[caseId];\n        for (uint256 i = 0; i < list.length; i++) {\n            if (list[i] == investigator) return true;\n        }\n        return false;\n    }\n\n    function _sendAdmin(uint256 amount) internal {\n        (bool sent, ) = adminWallet.call{value: amount}(\"\");\n        require(sent, \"Admin fee failed\");\n    }\n\n    function _countDigits(uint256 n) internal pure returns (uint256) {\n        uint256 c;\n        do {\n            c++;\n            n /= 10;\n        } while (n != 0);\n        return c;\n    }\n\n    function uint2str(uint256 v) internal pure returns (string memory) {\n        if (v == 0) return \"0\";\n        uint256 digits;\n        uint256 tmp = v;\n        while (tmp != 0) {\n            digits++;\n            tmp /= 10;\n        }\n        bytes memory b = new bytes(digits);\n        while (v != 0) {\n            digits -= 1;\n            b[digits] = bytes1(uint8(48 + v % 10));\n            v /= 10;\n        }\n        return string(b);\n    }\n\n    function formatTime(uint256 h, uint256 m) internal pure returns (string memory) {\n        string memory hh = h < 10 ? string(abi.encodePacked(\"0\", uint2str(h))) : uint2str(h);\n        string memory mm = m < 10 ? string(abi.encodePacked(\"0\", uint2str(m))) : uint2str(m);\n        return string(abi.encodePacked(hh, \":\", mm));\n    }\n}\n",
  "sourcePath": "/Users/mdrakibhossain/Downloads/blockchainpart1-ovijit/Local/dapp/anotherproject/contracts/MissingPersonsSystem.sol",
  "compiler": {
    "name": "solc",
    "version": "0.8.19+commit.7dd6d404.Emscripten.clang"
  },
  "schemaVersion": "3.4.16",
  "updatedAt": "2025-05-05T06:46:38.625Z",
  "networkType": "ethereum",
  "devdoc": {
    "kind": "dev",
    "methods": {},
    "version": 1
  },
  "userdoc": {
    "kind": "user",
    "methods": {},
    "version": 1
  }
}